:020000040800F2
:10000000601C0020450100088D1F00088F1F00089C
:10001000931F0008971F00089B1F000800000000A6
:100020000000000000000000000000009F1F00080A
:10003000A11F000800000000A31F0008A51F000862
:100040005F0100085F0100085F0100085F01000810
:100050005F0100085F010008B7350008C3340008DD
:100060005F0100085F0100085F0100085F010008F0
:100070005F0100085F0100085F0100085F010008E0
:100080005F0100085F0100085F0100085F010008D0
:100090005F0100085F0100085F0100085F010008C0
:1000A0005F0100085F0100085F0100085F010008B0
:1000B0000F3400085F0100085F0100085F010008BD
:1000C0005F0100085F0100085F0100085F01000890
:1000D0005F010008972F0008853200085F010008C3
:1000E0005F0100085F0100085F0100085F01000870
:1000F0005F0100085F0100085F0100085F01000860
:100100005F0100085F0100085F0100085F0100084F
:100110005F0100085F010008433100085F0100082B
:100120005F0100085F0100085F0100085F0100082F
:10013000DFF80CD003F050FA00480047651E0008B5
:10014000601C00200648804706480047FEE7FEE79F
:10015000FEE7FEE7FEE7FEE7FEE7FEE7FEE7FEE777
:1001600047020008310100080CB500200190009002
:100170006C48006840F480306A49086000BF6948F4
:10018000006800F4003000900198401C0190009835
:1001900018B90198B0F5A06FF1D16248006800F479
:1001A000003010B10120009001E000200090009884
:1001B000012843D15C48006840F010005A490860AB
:1001C0000846006820F0030008600846006840F018
:1001D0000200086053484068524948600846406839
:1001E00048600846406840F48060486008464068BF
:1001F00020F47C1048600846406840F4E8104860ED
:100200000846006840F08070086000BF45480068FC
:1002100000F000700028F9D04248406820F0030048
:10022000404948600846406840F00200486000BF0E
:100230003C48406800F00C000828F9D10CBD10B50E
:10024000FFF792FF10BD10B53648006840F001007E
:1002500034490860084640683449084031494860DC
:1002600008460068324908402E4908600846006880
:1002700020F4802008600846406820F4FE004860B2
:100280004FF41F008860FFF7DAFF4FF00060294944
:10029000086010BD10B5002100200022214B5B68D2
:1002A00003F00C0121B1042906D0082928D107E068
:1002B000214B224C236027E01F4B204C236023E07E
:1002C000184B5B6803F47010164B5B6803F48032C4
:1002D000022303EB904022B9194B4343174C236090
:1002E0000DE0104B5B6803F4003323B1144B434320
:1002F000124C236003E0104B4343104C236003E097
:100300000D4B0E4C236000BF00BF064B5B68C3F370
:1003100003130C4CE15C094B1B68CB40074C23607A
:1003200010BD000000100240002002400000FFF855
:10033000FFFFF6FE08ED00E000127A00000000204A
:1003400000093D000400002031490143314A116099
:10035000704770B5002100230F22C47804B32D4CE0
:10036000246804F4E064C4F5E064210AC1F10403E4
:10037000CA40447804FA03F1847814402143090107
:10038000254C0678A155047804F01F050124AC40E3
:1003900005786D11AD0005F1E025C5F8004109E0D3
:1003A000047804F01F050124AC401C4D067876113A
:1003B00045F8264070BD1A4A0A400243154B1B1FE0
:1003C0001A60704739B1134A121D12680243114B6B
:1003D0001B1D1A6006E00F4A121D126882430D4B66
:1003E0001B1D1A607047042808D14FF0E0210969ED
:1003F00041F004014FF0E022116107E04FF0E021ED
:10040000096921F004014FF0E022116170470000FA
:100410000000FA050CED00E000E400E080E100E0FF
:1004200080FFFF1F002044490860091D0860091D66
:100430000860091D086041483F4914310860704751
:1004400000213D498279002A3AD00A4612680368A1
:100450009A430B461A600A1D126803689A430B1DE3
:100460001A60027911440A6803681A430A60324A22
:100470000832126803689A432F4B08331A601A1D1A
:10048000126803689A432C4B0C331A604279102A85
:100490000ED11A1F126803681A43274B08331A60DB
:1004A0001A1D126803681A43234B0C331A600DE0BF
:1004B0002149427911440A6803681A430A6005E039
:1004C000027911440A6803689A430A607047002160
:1004D000016001710C214171002181717047164941
:1004E000103109680143144A103211607047014607
:1004F0000020114A143212680A400AB1012000E0BB
:10050000002070470C4914310860704701460020F4
:100510000022094B1B6803EA0102074B14331B68D6
:100520000B4013B10AB1012000E0002070470249DE
:10053000143108607047000000040140FFFF0F0005
:1005400010B50446CC48844208D10121042000F0B3
:100550002DFB0021042000F029FB46E0C74884421F
:1005600008D10121082000F021FB0021082000F023
:100570001DFB3AE0C248844208D10121102000F05E
:1005800015FB0021102000F011FB2EE0BD48844235
:1005900008D10121202000F009FB0021202000F0DB
:1005A00005FB22E0B848844208D10121402000F038
:1005B000FDFA0021402000F0F9FA16E0B348844229
:1005C00008D10121802000F0F1FA0021802000F004
:1005D000EDFA0AE0AE48844207D10121801500F00F
:1005E000E5FA0021A01500F0E1FA10BD10B50121D7
:1005F000084600F0DBFA0021012000F0D7FA10BD18
:100600002DE9F041024600250026002000230024A9
:10061000002791F803C00CF00F0591F803C00CF00F
:10062000100CBCF1000F03D091F802C04CEA050594
:1006300091F800C0BCF1000F31D0146800202BE00D
:100640004FF0010C0CFA00F3B1F800C00CEA0306FD
:100650009E4220D183004FF00F0C0CFA03F7BC43ED
:1006600005FA03FC4CEA040491F803C0BCF1280F1E
:1006700006D14FF0010C0CFA00FCC2F814C00AE0DD
:1006800091F803C0BCF1480F05D14FF0010C0CFAF2
:1006900000FCC2F810C0401C0828D1D31460B1F887
:1006A00000C0BCF1FF0F34DD546800202EE000F1E3
:1006B000080C4FF0010808FA0CF3B1F800C00CEA7E
:1006C00003069E4221D183004FF00F0C0CFA03F772
:1006D000BC4305FA03FC4CEA040491F803C0BCF1E6
:1006E000280F05D100F1080C08FA0CF8C2F81480A4
:1006F00091F803C0BCF1480F07D100F1080C4FF08E
:10070000010808FA0CF8C2F81080401C0828CED363
:100710005460BDE8F0814FF6FF71018002218170C5
:100720000421C17070470246002093680B400BB152
:10073000012000E0002070470146886880B27047C1
:1007400002460020D3680B400BB1012000E00020DE
:1007500070470146C86880B27047016170474161C7
:1007600070470AB1016100E041617047C1607047A4
:100770004FF480320A4382618161826182698269B9
:10078000704702460020434B18684FF680731840AC
:1007900040EA021008433F4B186070473E49C86169
:1007A0007047F0B50A46002300240021002500F020
:1007B0000046B6F1004F02D1364EF16901E0354EE8
:1007C0007168C0F3034583B200F44016B6F5401FCC
:1007D00008D121F070612F4E766826F070662D4F9B
:1007E0007E6012E000F48016B6F5801F06D1032665
:1007F00006FA05F4A14341F0706106E0460D3601AA
:1008000003FA06F6B14341F0706122B1460D36019C
:1008100003FA06F6314300F00046B6F1004F02D16C
:100820001C4EF16101E01B4E7160F0BD30B500223D
:100830008B071C0F0F2303FA04F2164B08338C109E
:1008400053F824309343134C08348D1044F825306A
:1008500023468C1053F824308C07240F00FA04F43C
:1008600023430C4C08348D1044F8253030BD0A4920
:10087000DC3108607047000000080140000C0140B6
:10088000001001400014014000180140001C01400C
:10089000002001400000014000002042DF480068C5
:1008A00040F00100DD49086008464068DC49084026
:1008B000DA49486008460068DA490840D7490860C4
:1008C0000846006820F4802008600846406820F44C
:1008D000FE0048604FF41F0088607047CF490968E8
:1008E00021F48031CD4A11601146096821F480213C
:1008F0001160B0F5803F03D0B0F5802F0ED106E037
:10090000C649096841F48031C44A116007E0C3490F
:10091000096841F4A021C14A116000E000BF00BF96
:10092000704710B501460022002300204A11012A19
:1009300002D1BA4C236806E0022A02D1B74C236ADE
:1009400001E0B64C636A01F01F02012494401C4090
:100950000CB1012000E0002010BD38B5002000904F
:100960000024002500BF3120FFF7DBFF054600987B
:10097000401C00900098B0F5A06F01D0002DF2D07F
:100980003120FFF7CEFF08B1012400E0002420460B
:1009900038BD01460020A14A106820F0F80040EA66
:1009A000C10010607047A0490860704702460020EF
:1009B0009A4B586820F47C1042EA01031843974B85
:1009C0005860704798490866704701460020934A6E
:1009D000506820F003000843506070478F4840681B
:1009E00000F00C007047014600208C4A506820F04F
:1009F000F00008435060704701460020874A506865
:100A000020F4E06008435060704701460020834AAC
:100A1000506820F4605040EAC1005060704729B12E
:100A20007E4A527A02437D4B5A7204E07B4A527AE4
:100A300082437A4B5A7270477B49D83108607047BD
:100A400001460020754A506820F440400843506039
:100A500070470021714A20321170704A82F82010CC
:100A6000012802D004280AD104E001216B4A203277
:100A7000117005E00521694A2032117000E000BFC5
:100A800000BF70476949086070476449096A0143BB
:100A9000624A11627047654944390860704730B551
:100AA00000210022002400235C4D6D6805F00C013C
:100AB00021B1042905D0082923D105E05C4D05604A
:100AC00022E05B4D05601FE0544D6D6805F4701227
:100AD000524D6D6805F48034022505EB92421CB935
:100AE000544D554305600BE04C4D6D6805F40035E1
:100AF0001DB1504D5543056002E04D4D5543056015
:100B000002E04B4D056000BF00BF444D6D6805F02D
:100B1000F0010909484D6B5C0568DD4045603F4DBB
:100B20006D6805F4E061090A434D6B5C4568DD4082
:100B300085603A4D6D6805F46051C90A3E4D6B5CA5
:100B40004568DD40C560354D6D6805F44041890B51
:100B50003A4D6B5CC568B5FBF3F5056130BD29B155
:100B60002E4A526902432D4B5A6104E02B4A5269C6
:100B700082432A4B5A61704729B1284A926902433D
:100B8000264B9A6104E0254A92698243234B9A617D
:100B9000704729B1214AD2690243204BDA6104E04F
:100BA0001E4AD26982431D4BDA61704729B11B4A44
:100BB000D2680243194BDA6004E0184AD2688243D3
:100BC000164BDA60704729B1144A12690243134B7D
:100BD0001A6104E0114A12698243104B1A6170478E
:100BE00012494039086070470F49C86470470B4983
:100BF000C87170470948406A40F0807007494862F0
:100C0000704701460020054A92680A400AB1012057
:100C100000E00020704701498872704700100240D0
:100C20000000FFF8FFFFF6FE00004242800442424F
:100C300000127A0000093D0014000020240000206A
:100C400010B50446FE48844208D10121C014FFF7C4
:100C5000ADFF0021E014FFF7A9FFC4E0B4F1804F1D
:100C600008D101210846FFF7AEFF00210120FFF760
:100C7000AAFFB8E0F348844208D101210220FFF71F
:100C8000A2FF00210220FFF79EFFACE0EE48844265
:100C900008D101210420FFF796FF00210420FFF76F
:100CA00092FFA0E0E948844208D101210820FFF723
:100CB0008AFF00210820FFF786FF94E0E448844281
:100CC00008D101211020FFF77EFF00211020FFF73F
:100CD0007AFF88E0DF48844208D101212020FFF715
:100CE00072FF00212020FFF76EFF7CE0DA4884428B
:100CF00008D101214014FFF759FF00216014FFF7CC
:100D000055FF70E0D548844209D10121C804FFF79E
:100D10004DFF00214FF40020FFF748FF63E0D0486B
:100D2000844209D101210805FFF740FF00214FF45B
:100D30008010FFF73BFF56E0CA48844209D10121E9
:100D40004805FFF733FF00214FF40010FFF72EFF97
:100D500049E0C548844208D101214020FFF733FF14
:100D600000214020FFF72FFF3DE0C048844208D11A
:100D700001218020FFF727FF00218020FFF723FFBC
:100D800031E0BB48844208D101218015FFF71BFFE9
:100D90000021A015FFF717FF25E0B648844209D1CE
:100DA00001210804FFF702FF00214FF48030FFF714
:100DB000FDFE18E0B048844209D101214804FFF744
:100DC000F5FE00214FF40030FFF7F0FE0BE0AB48DA
:100DD000844208D101218804FFF7E8FE00214FF486
:100DE0008020FFF7E3FE10BD00220288944B98425A
:100DF0000ED0994B98420BD0B0F1804F08D0914B58
:100E0000984205D0904B984202D0904B984204D122
:100E10004FF68F731A404B881A438D4B984207D078
:100E20008C4B984204D04FF6FF431A40CB881A43AC
:100E300002808B8883850B880385814B98420BD079
:100E4000854B984208D08B4B984205D08A4B9842EC
:100E500002D08A4B984201D10B7A03860123838208
:100E6000704770B5002400220023058C4FF6FE76F3
:100E700035400584028C8388048B4FF68F752C4097
:100E8000B51E2C400D882C43751E2A400D892A431F
:100E90004D882A436A4DA8420BD06F4DA84208D016
:100EA000744DA84205D0744DA84202D0734DA8429B
:100EB00013D14FF6F7752A404D892A434FF6FB753B
:100EC0002A408D882A434FF6FF652B404FF6FF5589
:100ED0002B408D892B43CD892B4383800483CD8880
:100EE0008586028470BD70B5002400220023058C25
:100EF0004FF6EF7635400584028C8388048B48F6E4
:100F0000FF752C404FF6FF452C400D884FF6FF76BD
:100F100006EA05252C434FF6DF752A400D8906EABF
:100F200005152A434D8806EA05152A43444DA84273
:100F300002D0494DA8421DD14FF67F752A404D89F8
:100F40004FF6FF7606EA05152A434FF6BF752A408D
:100F50008D8806EA05152A434FF6FF352B404FF2E0
:100F6000FF752B408D8906EA85052B43CD8906EA5E
:100F700085052B4383800483CD880587028470BD5B
:100F800070B5002400220023058C4FF6FF66354023
:100F90000584028C8388848B4FF68F752C404FF626
:100FA000FC752C400D882C434FF6FF552A400D89C7
:100FB0004FF6FF7606EA05252A434D8806EA052501
:100FC0002A431F4DA84202D0234DA8421DD14FF203
:100FD000FF752A404D894FF6FF7606EA05252A431C
:100FE0004FF6FF352A408D8806EA05252A434EF63E
:100FF000FF752B404DF6FF752B408D8906EA0515D0
:101000002B43CD8906EA05152B4383808483CD8845
:101010008587028470BD70B5002200230024058CF2
:101020004EF6FF7635400584038C8488828B48F623
:10103000FF752A404FF6FF452A400D8820E000004A
:10104000002C01400004004000080040000C00405B
:10105000001000400014004000340140004C0140EA
:10106000005001400054014000180040001C0040A6
:101070000020004000400140004401400048014081
:101080004FF6FF7606EA05252A434DF6FF752B40FD
:101090000D8906EA05352B434D8806EA05352B43B5
:1010A000FA4DA84202D0FA4DA84208D14BF6FF757E
:1010B0002C408D894FF6FF7606EA85152C438480F7
:1010C0008283CD88A0F84050038470BD828B4FF29C
:1010D000FF331A408283828B4FF6FF7303EA0123AA
:1010E0001A4382837047F0B50C4615460022002152
:1010F0000026078C4EF6FF7C07EA0C070784828BDC
:10110000018C4FF6FF7707EA043640F6FF473A4076
:101110004FF6FF7707EA05273A434FF6FF7707EACE
:1011200003373A43D94FB8420ED0D94FB8420BD00B
:10113000B0F1804F08D0D74FB84205D0D64FB84253
:1011400002D0D64FB84206D14DF6FF77394046F46B
:101150008057394305E047F6FF57394044F480573C
:10116000394382830184F0BD828B4FF6F3731A40BA
:101170008283828B0A4382837047F0B50C46154602
:10118000002200210026078C4FF6FF6C07EA0C07AF
:101190000784828B018C4FF6FF7707EA04264FF60F
:1011A0000C773A404FF6FF7707EA03172F433A438D
:1011B000B64FB8420ED0B64FB8420BD0B0F1804F08
:1011C00008D0B44FB84205D0B34FB84202D0B34FA5
:1011D000B84206D14FF6FF57394046F4807739437D
:1011E00005E04FF2FF57394044F48077394382835A
:1011F0000184F0BD028B4FF2FF331A400283028B51
:101200004FF6FF7303EA01231A4302837047F0B5D8
:101210000C461546002200210026078C4FF6EF7C75
:1012200007EA0C070784028B018C4FF6FF7707EA69
:10123000041640F6FF473A404FF6FF7707EA0337B8
:101240003A434FF6FF7707EA05273A438F4FB842F4
:101250000ED08F4FB8420BD0B0F1804F08D08D4FD9
:10126000B84205D08C4FB84202D08C4FB84206D15C
:101270004FF6DF77394046F01007394305E04FF667
:101280005F77394044F01007394302830184F0BD91
:10129000028B4FF6F3731A400283028B0A430283D8
:1012A0007047F0B50C46154600220021068C4FF61B
:1012B000FE773E400684028B018C4FF60C7632405E
:1012C0007E1C06EA03162E433243704EB0420ED007
:1012D0006F4EB0420BD0B0F1804F08D06D4EB0428F
:1012E00005D06D4EB04202D06C4EB04206D14FF6E2
:1012F000FD76314044F00106314305E04FF6F576C6
:10130000314044F00106314302830184F0BD70B5E1
:1013100005460C465D4885420ED05D4885420BD09F
:10132000B5F1804F08D05B48854205D05A488542C8
:1013300002D05A48854200D100E000BF208850B951
:101340002389A28861882846FFF7ABFFE1882846F9
:10135000FFF79EFF25E0208804280AD12389A28870
:1013600061882846FFF753FFE1882846FFF742FFD0
:1013700017E0208808280AD12389A2886188284696
:10138000FFF7FBFEE1882846FFF7EEFE09E0238920
:10139000A28861882846FFF7A6FEE1882846FFF765
:1013A00095FE70BD2DE9F04105460C46002601274B
:1013B000608808B9022600E00026A088012801D133
:1013C000022700E001272088A0B92389A28861882C
:1013D0002846FFF766FFE1882846FFF759FF238973
:1013E0003A4631462846FFF712FFE1882846FFF7C4
:1013F00001FF13E02389A28861882846FFF707FFD1
:10140000E1882846FFF7F6FE23893A46314628460A
:10141000FFF747FFE1882846FFF73AFFBDE8F08174
:101420000A884B881A438B881A43CB881A430B8946
:101430001A434B891A438B891A43A0F844207047FA
:101440004FF6FF71818000210180C18041800172CF
:1014500070470021018041808180C18001814181EC
:101460008181C181704700210180418001218180FB
:101470000021C1800181704700210180418081806D
:10148000C18001814181818170470000002C0140B1
:10149000003401400004004000080040000C0040FF
:1014A00021B1028842F00102028004E002884FF676
:1014B000FE731A400280704731B1B0F8442042F404
:1014C0000042A0F8442005E0B0F84420C2F30E0228
:1014D000A0F8442070471AB183890B43838102E04E
:1014E00083898B43838170478182704741EA02037D
:1014F000A0F8483070471AB183890B43838102E01A
:1015000083898B438381704701894FF6F8721140BC
:10151000018170470A46002101894FF68F731940F7
:1015200011430181704730B504460D4629462046D7
:10153000FFF7F0FF208940F00700208130BD2DE942
:10154000F04104460D4616461F46602D06D13B4627
:10155000012231462046FFF75AFE05E03B460122B4
:1015600031462046FFF79DFE29462046FFF7D2FF71
:10157000208940F007002081BDE8F08130B50C469D
:1015800000210189C9B24FF6FF7505EA032515430D
:1015900025432943018130BD2DE9F04105460E4622
:1015A00017469846002443463A4631462846FFF7F8
:1015B000E5FF2C894FF6F870044044F007044FF61D
:1015C0008F70044044F070042C81BDE8F081F0B5C8
:1015D00004460D4616461F463B46324629462046DF
:1015E000FFF7CCFF208940F480402081F0BD0185C9
:1015F000828270470A46002101884FF68F73194096
:10160000114301807047F0B50C4615461E46002177
:10161000002200230189028B038C4FF6F8773940B2
:1016200021434FF6FC473A4040F201173A434FF648
:10163000DD773B404FF6FF7707EA06172F433B4322
:10164000018102830384F0BD0A460021018B4FF61D
:101650008F7319401143018370470A460021018BA3
:1016600048F6FF7319404FF6FF7303EA022319434C
:10167000018370470A460021818B4FF68F73194012
:101680001143818370470A460021818B48F6FF731E
:1016900019404FF6FF7303EA022319438183704711
:1016A00021B1028842F08002028004E002884FF6F5
:1016B0007F731A400280704721B1828842F0040291
:1016C000828004E082884FF6FB731A408280704764
:1016D00021B1828842F00802828004E082884FF6BD
:1016E000F7731A408280704721B1828842F001026C
:1016F000828004E082884FF6FE731A408280704731
:101700000A460021018B4FF6F773194011430183FC
:1017100070470A460021018B4FF2FF7319404FF6C4
:10172000FF7303EA02231943018370470A4600212D
:10173000818B4FF6F77319401143818370470A4636
:101740000021818B4FF2FF7319404FF6FF7303EABC
:1017500002231943818370470A460021018B4FF60B
:10176000FB7319401143018370470A460021018B26
:101770004FF6FF3319404FF6FF7303EA0223194374
:10178000018370470A460021818B4FF6FB73194095
:101790001143818370470A460021818B4FF6FF3346
:1017A00019404FF6FF7303EA022319438183704700
:1017B0000A460021018B4FF67F73194011430183C4
:1017C00070470A460021018BC1F30E014FF6FF73EB
:1017D00003EA02231943018370470A460021818BE3
:1017E0004FF67F7319401143818370470A460021E9
:1017F000818BC1F30E014FF6FF7303EA02231943F5
:10180000818370470A460021018C4FF6FD73194011
:101810001143018470470A460021018C4FF6F7738B
:1018200019401143018470470A460021018C4FF68C
:10183000DF7319404FF6FF7303EA02131943018463
:1018400070470A460021018C4FF67F7319404FF60E
:10185000FF7303EA02131943018470470A4600210B
:10186000018C4FF6FF5319404FF6FF7303EA022332
:101870001943018470470A460021018C4FF2FF731F
:1018800019404FF6FF7303EA02231943018470479E
:101890000A460021018C4DF6FF7319404FF6FF7385
:1018A00003EA023319430184704730B50023012451
:1018B0008C40A3B2048C9C430484048C02FA01F58E
:1018C000ADB22C43048430BD30B5002304248C40D9
:1018D000A3B2048C9C430484048C02FA01F5ADB2DB
:1018E0002C43048430BD70B5034600200024184604
:1018F000183001258D40ACB21D8CA5431D8409B163
:10190000082909D100EB6100056825F07005056024
:101910000568154305600EE00D1FC5F34E0528440C
:10192000056825F4E045056005684FF6FF7606EA90
:1019300002263543056070BD21B1028842F00202E3
:10194000028004E002884FF6FD731A40028070475F
:1019500021B1028842F00402028004E002884FF6BE
:10196000FB731A400280704721B1828842F08002E6
:10197000828004E082884FF67F731A40828070472D
:1019800002884FF6F7731A40028002880A430280E9
:10199000704782884FF68F731A40828082880A438C
:1019A0008280704702894FF6F8731A4002810289DB
:1019B0000A430281704702894FF67F731A40028101
:1019C00002890A430281704781847047818570478C
:1019D000818670470187704781877047A0F8401063
:1019E000704702884FF6FF431A40028002880A437C
:1019F000028070470146888E70470146088F704705
:101A00000146888F70470146B1F840007047014693
:101A1000888C70470146088D704702460020138A63
:101A20000B400BB1012000E000207047CA43028246
:101A3000704730B50246002000230024158A05EACD
:101A40000103958905EA010413B10CB1012000E0FE
:101A5000002030BDCA4302827047000010B5044622
:101A6000FB48844209D101218803FFF79FF8002138
:101A70004FF48040FFF79AF832E0F648844209D1EB
:101A800001214804FFF79FF800214FF40030FFF7D1
:101A90009AF825E0F048844209D101218804FFF733
:101AA00092F800214FF48020FFF78DF818E0EB4802
:101AB000844209D10121C804FFF785F800214FF4C1
:101AC0000020FFF780F80BE0E548844208D10121AF
:101AD0000805FFF778F800214FF48010FFF773F83E
:101AE00010BD2DE9F04786B005460E460024A246FB
:101AF00000BFA1460027B08900B100BF2F462C8A45
:101B00004CF6FF700440F08804432C82AC894EF6FA
:101B1000F3100440B08831890843718908430443B5
:101B2000AC81AC8A4FF6FF400440B0890443AC82DC
:101B300001A8FEF7B4FFC648874202D1DDF810A025
:101B400001E0DDF80CA0A88900F4004040B10AEBE8
:101B5000CA0000EB0A1031684900B0FBF1F807E059
:101B60000AEBCA0000EB0A1031688900B0FBF1F8FB
:101B70006420B8FBF0F004012009642101FB108906
:101B8000A88900F4004040B1322000EBC900B0FB4E
:101B9000F1F000F00700044308E0322000EB0910E8
:101BA0006421B0FBF1F000F00F0004432C8106B07B
:101BB000BDE8F0874FF41651016000218180C1809B
:101BC00001810C21418100218181704710B50246BD
:101BD0000020108A4FF2FF0318400B884C882343E3
:101BE0008C882343CC8823431843108210BD0021E6
:101BF000018041808180C180704721B1828942F497
:101C00000052828104E082894DF6FF731A4082817E
:101C10007047F0B50346002400260025002040F65A
:101C20006A17B94200D100BF1846C1F3421401F04F
:101C30001F06012707FA06F5012C01D10C3004E03C
:101C4000022C01D1103000E014301AB107682F4384
:101C5000076002E00768AF430760F0BD1AB1838AEE
:101C60000B43838202E0838A8B4383827047028A1C
:101C70004FF6F0731A400282028A0A4302827047CA
:101C800082894FF2FF731A40828182890A438281DE
:101C9000704721B1828942F00202828104E0828988
:101CA0004FF6FD731A4082817047028A4FF6DF7348
:101CB0001A400282028A0A430282704721B1028AD4
:101CC00042F48042028204E0028A4BF6FF731A401B
:101CD00002827047C1F308028280704701468888FB
:101CE000C0F308007047818941F00101818170478C
:101CF000028BD2B20283028B42EA01220283704736
:101D0000028B02F47F420283028B0A4302837047F4
:101D100021B1828A42F02002828204E0828A4FF658
:101D2000DF731A408282704721B1828A42F010022A
:101D3000828204E0828A4FF6EF731A4082827047F3
:101D400021B1828A42F00802828204E0828A4FF640
:101D5000F7731A408282704721B1828942F40042AF
:101D6000828103E08289C2F30E028281704721B131
:101D7000828A42F40062828204E0828A4FF2FF7318
:101D80001A4082827047828A4FF6FB731A40828221
:101D9000828A0A438282704721B1828A42F002021B
:101DA000828204E0828A4FF6FD731A408282704775
:101DB00002460020B1F5007F00D100BF13880B4020
:101DC0000BB1012000E00020704701F40072B2F571
:101DD000007F00D100BFCA430280704770B5024641
:101DE000002400230025002040F66A16B14200D1ED
:101DF00000BFC1F3421501F01F03012606FA03F3E9
:101E0000012D02D19689334006E0022D02D1168AB7
:101E1000334001E0968A33400C12012606FA04F49E
:101E20001688344013B10CB1012000E0002070BDD1
:101E300010B50022002340F66A14A14200D100BF71
:101E40000A1201249440A3B2DC43048010BD0000B8
:101E5000003801400044004000480040004C004071
:101E60000050004008B500F0EFFC0120424B00227A
:101E700041210090312000F026FA4121312000F06C
:101E800013FB4FF4FA6001F002F902203A4B0022F2
:101E900043210090322000F016FA4321322000F056
:101EA00076FB4FF4FA6001F0F2F863E03348006823
:101EB00040F00200314908600020314908702021BB
:101EC0003048FEF74AFC80212E48FEF748FC0121ED
:101ED0008807FFF7E5FA00BF294800780128FBD101
:101EE0002648006820F002002449086000202449A8
:101EF00008704FF4E17001F0CAF820212148FEF784
:101F00002EFC80211F48FEF72AFC40211D48FEF7C9
:101F100026FC00214FF08040FFF7C2FA0120164B4B
:101F2000002242210090312000F0CDF942213120E1
:101F300000F0BAFA00F0CAFB1348C0780E490870E6
:101F40004FF47A7001F0A3F802200B4B01224421D8
:101F50000090322000F0B7F94421322000F017FB46
:101F6000094800F02FFA044800F078F945213220A2
:101F700000F00DFB9AE700002A0000200004014059
:101F8000111800200008014046180020704700BFCB
:101F9000FEE700BFFEE700BFFEE700BFFEE77047B9
:101FA0007047704770472DE9F04780460E46174648
:101FB0009946002458E0002524E018F81400A840B1
:101FC00000F0FF0A0AF0800068B97A1E6B1C03EB70
:101FD000021291B2721E631C03EB021290B2002235
:101FE00000F04BFF0CE07A1E6B1C03EB021291B267
:101FF000721E631C03EB021290B24A4600F03DFFD2
:10200000681C85B2082DD8DB002529E0012000EBF3
:10201000440018F80000A84000F0FF0A0AF0800011
:1020200070B97B1E05F1090202EB031291B2721E18
:10203000631C03EB021290B2002200F01EFF0DE0C1
:102040007B1E05F1090202EB031291B2721E631CA2
:1020500003EB021290B24A4600F00FFF681C85B2F3
:10206000082DD3DB601C84B2102CA4DBBDE8F08704
:102070002DE9F041074601262EE0002528E0002446
:102080000EE0721E631C03EB021291B27A1E6B1CEF
:1020900003EB021290B2002200F0EFFE601C84B24B
:1020A000082CEEDB00240FE0731E04F1090202EBA2
:1020B000031291B27A1E6B1C03EB021290B2002243
:1020C00000F0DBFE601C84B2082CEDDB681C85B2DE
:1020D000102DD4DB701CC6B2152ECEDBBDE8F0810E
:1020E0002DE9F04705460E4617469846DDF8209044
:1020F00000240AE004EB0801CAB205EB44104B4689
:102100003946FFF750FF601CC4B2B442F2DBBDE8B1
:10211000F08708B518E04FF4784014231A464FF4BE
:1021200096710090DC2000F078FE642000F0AFFF94
:10213000002014231A464FF496710090DC2000F022
:102140006CFE642000F0A3FFE5E700002DE9F047F6
:1021500080460E4617469946002460E0002528E098
:1021600018F81400A84000F0FF0A0AF0800078B9BF
:102170007A1E6B1C03EB021291B2721E02EB420339
:10218000621C02EBC30290B2002200F076FE0EE069
:102190007A1E6B1C03EB021291B2721E02EB420319
:1021A000621C02EBC30290B24A4600F066FE681C55
:1021B00085B2082DD4DB00252DE0012000EB440082
:1021C00018F80000A84000F0FF0A0AF0800080B96B
:1021D0007B1E05F1090202EB031291B2721E02EBA3
:1021E0004203621C02EBC30290B2002200F045FEE3
:1021F0000FE07B1E05F1090202EB031291B2721E81
:1022000002EB4203621C02EBC30290B24A4600F0AA
:1022100034FE681C85B2082DCFDB601C84B2182CFC
:102220009CDBBDE8F0872DE9F04105460E461746D8
:1022300000240CE0A119CAB204EB4401064B03EBE5
:1022400001103B462946FFF781FF601CC4B2092CF0
:10225000F0DBBDE8F08100004B16002001460022B3
:1022600001E0531C9AB28B5C002BFAD1002003E0F2
:1022700000230B54431C98B29042F9DB7047F0B531
:1022800002460B464FF6FF700024002500BF13E006
:102290001178521C484000250AE000F0010626B1E2
:1022A00040104AF20106704000E040106E1CF5B28A
:1022B000082DF2DB661CF4B29C42E9DB3F4F38701C
:1022C00006127E70F0BD2DE9F04706460F46144613
:1022D0009846DDF820903A48067047701CB94E20A9
:1022E0003749887001E036488470002506E018F808
:1022F0000510334AE81C1154681CC5B2A542F6DB30
:10230000E01CC1B22E48FFF7BAFF2C4841782C4A96
:10231000E01C115429480178201D1154B9F1010F16
:1023200003D0B9F1020F08D103E0254800F01CFEEC
:1023300004E0234800F07FFF00E000BF00BF20481A
:10234000FFF78CFF1D48FFF789FFBDE8F08738B520
:10235000054600200090002401E0601C84B2285D46
:102360000028FAD1601E285C8DF80000A01E285CB1
:102370008DF801000021601E2954A01E29540F4829
:10238000FFF76CFFA01EC1B22846FFF778FF9DF84B
:1023900000000A49097888420AD19DF801000749DE
:1023A0004978884204D10548FFF758FF012038BD1D
:1023B0000248FFF753FF0020F9E70000FB17002059
:1023C0001418002010B504462078312802D0322895
:1023D00008D103E02046FFF741FF04E02046FFF765
:1023E0003DFF00E000BF00BF10BD38B504460D46FC
:1023F000A5F14100052845D2DFE800F003101D2AB1
:1024000037000720FFF734FE4FF4FC60012307225A
:1024100008210090F548FFF763FE34E00720FFF73E
:1024200027FE4FF4FC600123072208210090F048AA
:10243000FFF756FE27E00720FFF71AFE4FF4FC6077
:10244000012307220B210090EA48FFF749FE1AE01A
:102450000720FFF70DFE4FF4FC6001230722114611
:102460000090E548FFF73CFE0DE00720FFF700FE77
:102470004FF4FC600123072211460090DF48FFF76C
:102480002FFE00E000BF00BF312C02D0322C08D15B
:1024900003E0DB48FFF796FF04E0DA48FFF792FF1E
:1024A00000E000BF00BF38BD38B505460C4601212D
:1024B000D548FEF7F5FF63E0D4480078012817D12E
:1024C00000F04FFE0020D1490870CD480078A842A6
:1024D00003D0CB484078A04203D10020CC490870FB
:1024E0004FE00121C848FEF7DBFFC548FFF76AFF50
:1024F000C8480068642843D1C548007805283FDCF7
:1025000000F02FFEC2480078052828D100F029FEEF
:10251000412C02D0422C1ED10EE00720FFF7A8FD6F
:102520004FF47840012307220C210090BA48FFF7AE
:10253000D7FDFFF7EEFD0FE00720FFF799FD4FF401
:102540007840012307220C210090B448FFF7C8FD12
:10255000FFF7DFFD00E000BF00BF00BFFEE7012086
:10256000AF4B0022214600902846FFF7ACFEA8485A
:102570000078401CA64908700121A348FEF790FF8F
:102580009AE700BF21462846FFF72FFF38BD38B530
:1025900005460C4601219C48FEF782FF8FE0A148CA
:1025A0000078012817D100F0DCFD00209D4908705B
:1025B00094480078A84203D092484078A04203D1C2
:1025C0000020994908707BE001218F48FEF768FFE1
:1025D0008C48FFF7F7FE8F48006864286FD1924857
:1025E000007805286BDC00F0BCFD8F4800780528DA
:1025F00039D100F0B6FD432C04D0442C11D0452C29
:102600002DD11DE00720FFF733FD4FF47840012363
:1026100007220F2100908548FFF762FDFFF779FD43
:102620001EE00720FFF724FD4FF478400123072226
:102630000F2100907E48FFF753FDFFF76AFD0FE082
:102640000720FFF715FD4FF47840012307220F21E3
:1026500000907848FFF744FDFFF75BFD00E000BF06
:1026600000BF00BFFEE7432C04D0442C0BD0452C08
:102670001AD118E002206A4B002221460090284619
:10268000FFF721FE11E05E48C0786549087002201E
:102690000B460122214600902846FFF714FE6048B1
:1026A000FFF7DCFD01E000E000BF00BF5E480078FE
:1026B000401C5D49087001215348FEF7F1FE6EE7AA
:1026C00000BF21462846FFF790FE38BD08B501211E
:1026D0004D48FEF7E5FE86E04C480078012853D1CE
:1026E00000F03FFD0020494908704548FFF72FFEE4
:1026F000012842D10020464908700420484908704A
:1027000001200B460246422100903120FFF7DBFDFD
:102710004348FFF7A3FD3A48C078472810D04E2819
:102720001BD0522826D10720FFF7A2FC4FF4FC60F3
:1027300001230722052100903F48FFF7D1FC1AE052
:102740000720FFF795FC4FF4FC60012307220521C9
:1027500000903A48FFF7C4FC0DE00720FFF788FC23
:102760004FF4FC60012307220D2100903448FFF74D
:10277000B7FC00E000BF00BF36E001212248FEF7B1
:102780008FFE1F48FFF71EFE2248006864282AD1EA
:102790001F480078052826DC00F0E3FC1C48007880
:1027A00005280FD100F0DDFC0720FFF761FC4FF496
:1027B0007840012307220C2100902248FFF790FC6B
:1027C000FFF7A7FC0120164B002242210090312088
:1027D000FFF779FD0E480078401C0D490870012173
:1027E0000948FEF75DFE77E700BF08BD2B02002019
:1027F000EB070020AB040020EB0C0020AB0F002007
:102800004618002050180020001000400718002033
:1028100028000020081800202B030020EB080020CF
:10282000FD1700200F180020290000200B060020B3
:10283000CB0D00208B1000206B1200200B1300200A
:10284000CB1300206B0B002008B500F043FB00F019
:10285000AAFC00F070FC00F0FDFA00F0BCFD00F0F6
:102860002AFE00F079FE4FF6E07201210846FFF7DC
:10287000DAFC40F21F500123032209210090064890
:10288000FFF72EFC4FF61F000123052207210090C1
:102890000248FFF725FC08BD2B0000204B0100205B
:1028A00001B502E00098401E009000980028F9D180
:1028B00008BD08B501210846FEF75EF90121FE4872
:1028C000FDF76FFF01213820FEF756F91020ADF813
:1028D000000003208DF8020010208DF803006946E7
:1028E000F648FDF78DFE2020ADF800006946F3485C
:1028F000FDF786FE4020ADF800006946EF48FDF781
:102900007FFE8020ADF800006946EC48FDF778FEB8
:102910000420ADF800006946E948FDF771FE4FF666
:10292000FF70ADF800006946E648FDF769FE042136
:10293000E348FDF714FF08BD10B504461021DF4839
:10294000FDF70DFF8021DD48FDF709FF2021DB4861
:10295000FDF703FFDB480C3004604021D748FDF74A
:10296000FEFE4021D548FDF7F8FE1021D348FDF7C3
:10297000F4FE10BD10B504461021D048FDF7EFFE5F
:102980008021CE48FDF7E9FE2021CC48FDF7E5FE89
:10299000CC480C3004604021C848FDF7E0FE4021DF
:1029A000C648FDF7DAFE1021C448FDF7D6FE10BD7B
:1029B00038B54FF6FF70ADF8000003208DF8020027
:1029C00048208DF803006946BE48FDF719FE102126
:1029D000BA48FDF7C4FE8021B848FDF7BEFE40218D
:1029E000B648FDF7BAFE2021B448FDF7B8FEB54859
:1029F000FDF7A2FE04462021B048FDF7AEFE1021EF
:102A0000AE48FDF7AAFE4FF6FF70ADF800000320B8
:102A10008DF8020010208DF803006946A948FDF7E3
:102A2000EFFD204638BD10B50024D320FFF784FF0A
:102A3000FFF7BEFFFFF7BCFFFFF7BAFF04464FF6F4
:102A4000FF7000EA0424FFF7B3FF0443204610BDE3
:102A500010B54FF6FF70FFF723FFCF20FFF76CFF95
:102A60000020FFF787FF8120FFF784FF3020FFF76A
:102A700081FF4FF6FF70FFF713FFED20FFF75CFFBC
:102A80006420FFF777FF0320FFF774FF1220FFF7A2
:102A900071FF8120FFF76EFF4FF6FF70FFF700FF19
:102AA000E820FFF749FF8520FFF764FF1020FFF7BC
:102AB00061FF7820FFF75EFF4FF6FF70FFF7F0FE33
:102AC000CB20FFF739FF3920FFF754FF2C20FFF709
:102AD00051FF0020FFF74EFF3420FFF74BFF02208D
:102AE000FFF748FF4FF6FF70FFF7DAFEF720FFF71A
:102AF00023FF2020FFF73EFF4FF6FF70FFF7D0FEC9
:102B0000EA20FFF719FF0020FFF734FF0020FFF74E
:102B100031FF4FF6FF70FFF7C3FEB120FFF70CFF48
:102B20000020FFF727FF1B20FFF724FF4FF6FF7061
:102B3000FFF7B6FEB620FFF7FFFE0A20FFF71AFFE9
:102B4000A220FFF717FF4FF6FF70FFF7A9FEC02086
:102B5000FFF7F2FE3520FFF70DFF4FF6FF70FFF78E
:102B60009FFEC120FFF7E8FE1120FFF703FFC520FD
:102B7000FFF7E2FE4520FFF7FDFE4520FFF7FAFED6
:102B8000C720FFF7D9FEA220FFF7F4FEF220FFF7DF
:102B9000D3FE0020FFF7EEFE2620FFF7CDFE01203A
:102BA000FFF7E8FE4FF6FF70FFF77AFEE020FFF731
:102BB000C3FE0F20FFF7DEFE2620FFF7DBFE2420FA
:102BC000FFF7D8FE0B20FFF7D5FE0E20FFF7D2FE51
:102BD0000920FFF7CFFE5420FFF7CCFEA820FFF717
:102BE000C9FE4620FFF7C6FE0C20FFF7C3FE1720E4
:102BF000FFF7C0FE0920FFF7BDFE0F20FFF7BAFE6A
:102C00000720FFF7B7FE0020FFF7B4FEE120FFF733
:102C100093FE0020FFF7AEFE1920FFF7ABFE1B204E
:102C2000FFF7A8FE0420FFF7A5FE1020FFF7A2FE85
:102C30000720FFF79FFE2A20FFF79CFE4720FFF7A3
:102C400099FE3920FFF796FE0320FFF793FE06203A
:102C5000FFF790FE0620FFF78DFE3020FFF78AFE7B
:102C60003820FFF787FE0F20FFF784FE4FF6FF7036
:102C7000FFF716FE3620FFF75FFEC820FFF77AFE4B
:102C80004FF6FF70FFF70CFE2A20FFF755FE0020DD
:102C9000FFF770FE0020FFF76DFE0020FFF76AFED1
:102CA000EF20FFF767FE4FF6FF70FFF7F9FD2B20CF
:102CB000FFF742FE002007E0000230000010014054
:102CC00000140140000C0140FFF754FE0020FFF704
:102CD00051FE0120FFF74EFE3F20FFF74BFE4FF65F
:102CE000FF70FFF7DDFD3A20FFF726FE5520FFF7C6
:102CF00041FE1120FFF720FE6848FFF7D1FD4FF697
:102D0000FF70FFF7CDFD2920FFF716FE10BD10B5AF
:102D10000446072C00DD10BD61480470204604EB1A
:102D2000D0714910A4EB410139B9F0205D49088008
:102D30004FF4A0705C49088006E04FF4A070594938
:102D40000880F020584908803620FFF7F5FD08215B
:102D500041EA4410FFF70EFE2A20FFF7EDFD0020A8
:102D6000FFF708FE0020FFF705FE4E490988491EBF
:102D7000C1F30720FFF7FEFD4A490978491EC8B292
:102D8000FFF7F8FD2B20FFF7D7FD0020FFF7F2FD3E
:102D90000020FFF7EFFD44490988491EC1F30720D1
:102DA000FFF7E8FD40490978491EC8B2FFF7E2FD88
:102DB0002C20FFF7C1FD00BFADE72DE9F04104462F
:102DC0000D4616461F462A20FFF7B6FD200AFFF7DC
:102DD000D1FDE0B2FFF7CEFDA119491EC1F30720D6
:102DE000FFF7C8FDA119491EC8B2FFF7C3FD2B208C
:102DF000FFF7A2FD280AFFF7BDFDE8B2FFF7BAFD15
:102E0000E919491EC1F30720FFF7B4FDE919491E6E
:102E1000C8B2FFF7AFFDBDE8F0812DE9F0470746E6
:102E2000884614461D46DDF820902B462246414632
:102E30003846FFF7C2FF2C20FFF77EFD002603E097
:102E40004846FFF797FD761C04FB05F0B042F7D823
:102E5000BDE8F08708B5FFF72CFDFFF7F9FD04206A
:102E6000FFF755FF002000900F4803880D480288A7
:102E700000210846FFF7D1FF08BD70B505460E4694
:102E8000144601231A4631462846FFF796FF2C20A8
:102E9000FFF752FD2046FFF76DFD70BDFCBF02003D
:102EA00002180020FE1700200018002008B54FF47B
:102EB000E060FDF749FA25208DF8000000208DF82C
:102EC000010001208DF802008DF803006846FDF72F
:102ED00040FA08BD00B585B001210420FDF74CFE85
:102EE00001218803FDF748FE4FF40070ADF8100093
:102EF00018208DF8130003208DF8120004A93D4816
:102F0000FDF77EFB4FF48060ADF8100004208DF8D3
:102F1000130004A93748FDF773FB4FF4E13000902C
:102F20000020ADF80400ADF80600ADF80800ADF8DB
:102F30000C000C20ADF80A0069462F48FEF7D1FDC1
:102F4000FFF7B4FF012240F225512B48FEF761FE46
:102F5000012240F224412848FEF75BFE0121264869
:102F6000FEF74BFE05B000BD70B50546002601E03A
:102F7000701C86B2A85D0028FAD1002408E0295D03
:102F80001D48FEF7A7FE642000F066F8601C84B2BE
:102F9000B442F4DB70BD10B540F225511648FEF77F
:102FA0001DFFA8B108211448FEF742FF4FF45871E5
:102FB0001148FEF73DFF1048FEF790FE0F49104AFA
:102FC000128888540E480088401C0D49088010E083
:102FD00040F224410848FEF701FF50B10648001DA9
:102FE000008808490870012007490870002004493A
:102FF000088010BD0008014000380140461800203C
:1030000004180020061800200718002030B50146DB
:10301000B1F1807F01D3012030BD21F07F40401EFF
:103020004FF0E022506150170F22002807DA1307F3
:103030001D0E244B00F00F04241F1D5503E0130741
:103040001C0E214B1C5400BF00204FF0E022906169
:10305000072010610020DFE770B504464820FFF725
:10306000D5FF002508E000BF4FF0E020006900F424
:1030700080300028F8D06D1CA542F4D34FF0E0203A
:10308000006920F001004FF0E021086170BD70B5CB
:1030900004460E48FFF7BAFF002508E000BF4FF0D6
:1030A000E020006900F480300028F8D06D1CA542B3
:1030B000F4D34FF0E020006920F001004FF0E02150
:1030C000086170BD18ED00E000E400E04019010067
:1030D00008B54FF4E060FDF737F936208DF80000B1
:1030E00000208DF8010004208DF8020001208DF8E9
:1030F00003006846FDF72DF908BD0EB5012110202B
:10310000FDF747FD4CF24F30ADF804004720ADF815
:10311000000069461748FDF767FE01211548FEF7D4
:1031200085FC012211461348FEF7D5F9002111480C
:10313000FEF7B6F90EBD10B5FFF7CAFFFFF7DDFFCA
:1031400010BD10B501210B48FEF773FC40B10A48D1
:103150000068401C0849086001210648FEF77AFC17
:1031600010BD10B500210348FEF79AF9002002496E
:10317000086010BD001000400818002008B54FF48A
:10318000E060FDF7E1F826208DF8000000208DF8C2
:10319000010002208DF8020001208DF8030068462E
:1031A000FDF7D7F808BD00B585B001210420FDF773
:1031B000E3FC01214804FDF7ECFC0420ADF810000D
:1031C00018208DF8130003208DF8120004A945483B
:1031D000FDF716FA0820ADF8100004208DF8130052
:1031E00004A94048FDF70CFA4FF4E13000900020AC
:1031F000ADF80400ADF80600ADF80800ADF80C001D
:103200000C20ADF80A0069463748FEF76AFCFFF764
:10321000B5FF012240F225513348FEF7FAFC0122A6
:1032200040F224413048FEF7F4FC01212E48FEF71D
:10323000E4FC05B000BD70B50546002601E0701C39
:1032400086B2A85D0028FAD1002408E0295D26484E
:10325000FEF740FD6420FFF7FFFE601C84B2B4421D
:10326000F4DB70BD70B504460D46E1B21E48FEF7B2
:1032700031FD00BF80211C48FEF79AFD0028F9D0DF
:10328000204670BD10B540F225511748FEF7A6FD47
:10329000A8B108211448FEF7CBFD4FF4587112482D
:1032A000FEF7C6FD1048FEF719FD1049104A1288B6
:1032B00088540F480088401C0D49088010E040F2F7
:1032C00024410948FEF78AFD50B10748001D0088D7
:1032D0000849087001200849087000200449088046
:1032E00010BD0000000801400044004050180020BC
:1032F0000C1800200E1800200F18002008B501211E
:103300000420FDF739FC2020ADF8000010208DF8D6
:10331000030003208DF8020069464748FDF770F965
:103320008020ADF8000010208DF8030003208DF8F8
:10333000020069464048FDF763F94020ADF80000FF
:1033400010208DF8030003208DF8020069463A48EA
:10335000FDF756F908BD08B54FF4E060FCF7F4FF3F
:103360001C208DF8000000208DF8010006208DF84B
:10337000020001208DF803006846FCF7EAFF08BD53
:103380000EB501210846FDF704FC0A20ADF8040043
:103390004720ADF800000020ADF80600ADF80200AF
:1033A00069464FF08040FDF71FFD00214FF080403F
:1033B000FEF776F9012211469007FEF78CF80021FE
:1033C0004FF08040FEF76CF80EBD10B5FFF7C3FF5D
:1033D000FFF7D6FF10BD10B5FFF790FFFFF7F5FF21
:1033E00010BD10B51548007840B903204FF080415A
:1033F000888540211048FDF7B0F907E007204FF01D
:103400008041888540210C48FDF7A9F910BD10B511
:1034100001218807FEF70DFB68B101218807FEF73F
:1034200019FBFFF7DEFF0548007808B9012000E02E
:1034300000200249087010BD00080140101800204B
:1034400008B54FF4E060FCF77FFF07208DF800001F
:1034500000208DF8010005208DF8020001208DF874
:1034600003006846FCF775FF08BD0EB50121042076
:10347000FDF782FB0220ADF8080004208DF80B0058
:1034800002A91648FDF7BCF801210846FDF774FBB8
:1034900001210020FDF7CAF90220009000208DF8DC
:1034A00004000C208DF8050001208DF80600684608
:1034B000FCF7C6FF0EBD10B5FFF7C2FFFFF7D5FF43
:1034C00010BD10B50220FDF721F828B101200449F4
:1034D00008700220FDF72BF810BD00000008014025
:1034E0001118002008B54FF4E060FCF72DFF06200E
:1034F0008DF8000000208DF801008DF802000120F9
:103500008DF803006846FCF724FF08BD0EB50121C5
:103510000420FDF731FB0120ADF8080004208DF8F0
:103520000B0002A92948FDF76BF801210846FDF7B9
:1035300023FB00210846FDF779F9012000900020C7
:103540008DF8040008208DF8050001208DF8060094
:103550006846FCF775FF0EBD10B5FFF7C3FFFFF718
:10356000D5FF10BD08B520211848FDF7F8F88021D7
:103570001648FDF7F4F840211448FDF7F0F8002153
:103580004FF08040FDF78CFF0220114B00222221DA
:1035900000903220FEF797FE0720FEF769FD4FF4FA
:1035A000784001230722114600900A48FEF798FD53
:1035B000FEF7AFFD08BD10B50120FCF7A7FF20B155
:1035C0000120FCF7B4FFFFF7CDFF10BD000801405C
:1035D000121800206B150020064C074D06E0E0682D
:1035E00040F0010394E8070098471034AC42F6D34A
:1035F000FCF7A2FD783600089836000870B58D18E3
:1036000010F8014B14F0030201D110F8012B231123
:1036100006D110F8013B03E010F8016B01F8016BD3
:10362000521EF9D1ABB110F8012B04F00C048A1A28
:103630000C2C03D0A2EB84129B1C08E010F8014B69
:10364000A2EB0422F8E712F8014B01F8014B5B1ED4
:10365000F9D5A942D4D3002070BD02E008C8121FDA
:1036600008C1002AFAD170477047002001E001C16B
:10367000121F002AFBD17047983600080000002076
:1036800014180000FC350008043E0008141800203F
:103690004C0400006A360008500600A24A040001EB
:1036A000600901020304060708090C6110100502F5
:1036B0000406081F101910801080508050FC7D54A3
:1036C0005254905410941C94F1245224104402102B
:1036D0000F8411281010080808884A482A482C0826
:1036E000400FFE4818481C082A0E2AF84808880887
:1036F000012013004004400420082010102008403E
:10370000049FE2042002220812203D202140408034
:103710001040104017FC1080FC8013E01120122094
:103720001BFC3020D12811241222142250A020404A
:103730000080204017FE10808110420847FC1004D2
:1037400010002248E248220230084A244A08460172
:10375000000210380801087D9005A00940094011B9
:1037600020111021084106810005000200105010B0
:10377000482040245C45E0F840105E23E04044FCD3
:1037800048403000221C52E08A4306211006F83FD0
:103790000004008E300F403F800100061018087FA3
:1037A000FC0104094413450440141E40102020204D
:1037B00023FE4840F888110423FE4092F890409080
:1037C00000901912E112420E46013E4014070023F8
:1037D000F81000106A100E07FCF040108011101253
:1037E0000817FC12E81010280047FE000008000926
:1037F000FC10002000480A140813FE3020502090CE
:103800003A510226A03E3540500F401BF854405715
:10381000FE500093F81208130410041228125910D5
:103820000847F8240824080402100817F81120217A
:1038300020E104000B10222022222422281E100046
:1038400001123002610612007A100A11FC1104F90B
:103850000409241102140739245524955454100DD9
:1038600090109011121212140E2208119F300C7F2A
:10387000FE400280041FF0101011021312900F205E
:1038800006841884607C0E141017FC1110FC0013C1
:10389000F832083BF85608530115F222A0EA431407
:1038A00006C2280613FC1044FC5418044413FE12EC
:1038B0001405A01CA0E1F0100F0404080200400051
:1038C0004078804BFC4A04022004F44A940210071A
:1038D0007A944AF4020402140B14020801000080D6
:1038E0003FFE20222808210428842484241C140953
:1038F000102210402040409F4017000090492410A3
:103900000600110011F804710216FF601116331041
:1039100009C0100D9FF410101FF001003FF821089E
:1039200002200428211034259C340410001F841226
:10393000201C1591110233FFC80804047E5000209A
:10394000202C0B20403F7E489085083FF80403114F
:10395000BC100D0021003FFC030405041928E1C23E
:10396000C5DC21F2D1132807804080208020B41CC0
:1039700005080A40148E03240CE0A020A021102189
:10398000102208248019406010201021A000400758
:10399000FCE444244427FC2406240C5454088FFEE1
:1039A000084008200BFE24140431FC301116912A23
:1039B0003A10341102110629C0281C08447E44081C
:1039C000440894FF0808FC288428842E8428FC28B6
:1039D0000058004FFE80E113087C1D2345FE231193
:1039E0000A10048844480231141D030312104C26A7
:1039F000F02412FD041006311039105502280591EB
:103A00001011127E1004120E1421101F1014101227
:103A10001010FBFE10103150395457F4515491548A
:103A20001148124A125A14261042991DA20325FE6B
:103A3000152231086BFFFE103D20041DA0036C1100
:103A4000102013FEFA02149411081A043000D1FC5D
:103A500060031A575810040404240210043FA444BD
:103A60000723FFE40D10043FA424020809DE268486
:103A7000250404140408E005DE800DDE40030D7FFC
:103A8000C0055D420612010252F1D41C061000145A
:103A900090180E071A02E5100E00047F044104413D
:103AA0002441247F24100232FFA81C0A112421047F
:103AB00021044A148483082F7FFC2E08410263FFEF
:103AC000FE0A2DA0036C042020400A071C0D40FCB8
:103AD00048248425FE248224004864041610260C01
:103AE00007C4448480FC0084C0051D98030D16CAD9
:103AF0000509FF80095C8049681C0A27FE4420F8FC
:103B00002011FC208F081804FDFC41CC14061D0474
:103B1000E10441768D52065D580515C40C0BC42393
:103B200088054009203118C10640080804117FFCAF
:103B3000008859820DFF40084D840B0C191EFDF8BA
:103B4000104810481448194830C8D04810A810AA86
:103B5000110A52062402C00B202323F8220822084F
:103B600023F8F80027BC24A42CA437BCE0402FFE87
:103B7000216022502448B84640400900021C0C1124
:103B8000FE12803280348050F890900D1D940D32DA
:103B9000FC0621020DFFC0070DDC4005099EC01A7E
:103BA00002126DBE054D6E0D1DF00F11021DD30BDF
:103BB0001D6E0417603C5C10068820B03EC008B83B
:103BC00007842684387C21420DFF800A0DDF8005A2
:103BD0000D3F000A1C0904FF840804102422A207D8
:103BE0001C05FFA408A4CB101D2A0A2DD110200704
:103BF0000F84F8144008BA2C0521FC2420A0074D9E
:103C0000120A1EFC160A3C0800201C20E02043403B
:103C100011100508001FE0187F40BFA007111F22E8
:103C200002028F1FFEE2100158A02F11F8BB0A1CE0
:103C30000749F8F808100800121C0D20FA224174F8
:103C400000A81924E22240160C0120A0011D011F2A
:103C5000804030060C1B1F208001100110E2242739
:103C6000E42048208821102A203450208803040CA6
:103C700004C0132240022D84136C11304030E050F8
:103C8000E091501150124815F418421A042D4B11AE
:103C900020117E7C42844284430442447E24422498
:103CA0004204023C047E0442A00F1C0E08FE7F105A
:103CB0002220147C7F4444544826142106040B20FF
:103CC00051544228442488423082801D5E081F805F
:103CD000003C131C0C0100034005200910110821B1
:103CE00092095E81A4031E02A4031E0462091967DF
:103CF00019DC7006304057FC90981A1FB80D3EE052
:103D0000092DAC04140AFFFE0440100009F8497E96
:103D1000100A250805280910710211025E104012D0
:103D20001DA00C3008045FF441044FE40812140293
:103D30001E54B20C3C05047FFC40000A52012417BB
:103D40004104263C0844442448145014050519A095
:103D50000D3E60141DE407159C1E202614180D62EC
:103D60000863F8A0002FFE280223F8E71D01109C2D
:103D70000521402080FC0FDDFE0F4D00100D3E6040
:103D8000145E00A205A1022D360361088989100B7B
:103D9000701E301C381C382C282C01200E4C2C4C4A
:103DA000244C268C268C228C230C020B18F13FC34A
:103DB000700807E01818100C30021D55160004108A
:103DC0001007E02839241F00076A0BB30300020024
:103DD00005410403180030012A902C0901E006185F
:103DE000081818182E15800730C03738381C3000D6
:103DF000069818080C100330FC06F0004001065A23
:043E000004000000BA
:0400000508000131BD
:00000001FF
