:020000040800F2
:10000000100D0020552400081302000815020008F6
:10001000190200081D02000821020008000000006B
:1000200000000000000000000000000025020008A1
:100030002702000800000000290200082B02000827
:100040006F2400086F2400086F2400086F24000844
:100050006F2400086F2400086F2400086F24000834
:100060006F2400086F2400086F2400086F24000824
:100070006F2400086F2400086F2400086F24000814
:100080006F2400086F2400086F2400086F24000804
:100090006F2400086F2400086F2400086F240008F4
:1000A0006F2400086F2400086F2400086F240008E4
:1000B000352700082B2900086F2400086F2400084A
:1000C0006F2400086F2400086F2400086F240008C4
:1000D0006F2400085F2600083F2800086F240008EE
:1000E0006F2400086F2400086F2400086F240008A4
:1000F0006F2400086F2400086F2400086F24000894
:100100006F2400086F2400086F2400086F24000883
:100110006F2400086F2400086F2400086F24000873
:100120006F2400086F2400086F2400086F24000863
:1001300000F002F800F05EF80AA090E8000C82449B
:100140008344AAF10107DA4501D100F053F8AFF278
:10015000090EBAE80F0013F0010F18BFFB1A43F0A5
:1001600001031847B8310000D831000010F8013BF6
:100170000A4413F0030408BF10F8014B1D1108BF17
:1001800010F8015B641E05D010F8016B641E01F8C5
:10019000016BF9D1002D15D010F8014B03F00C03C1
:1001A0000C2BA1EB04040ABF10F8013BA4EB831451
:1001B000A4EB032405F1010314F8016B5B1E01F8A5
:1001C000016BF9D5914238BF10F8013BD1D370478C
:1001D0000023002400250026103A28BF78C1FBD850
:1001E000520728BF30C148BF0B6070471FB51FBD05
:1001F00010B510BD02F0BFFB1146FFF7F7FF00F08E
:1002000015F802F0DDFB03B4FFF7F2FF03BC02F0C8
:10021000E1FB704700BFFEE700BFFEE700BFFEE75F
:1002200000BFFEE7704770477047704700F020FB43
:1002300016E00C480078012812D100200949087006
:10024000094800F0DAFA28B1012807D1064800F081
:1002500019FA04E0044802F00DFB00E000BF00BF03
:10026000E7E700000D0600207E06002001200EE0DA
:10027000794900EB4002794B03EB82025160002187
:1002800000EB400203EB82029160411CC8B20528DA
:10029000EEDD704770B505460E46144624B1314672
:1002A000284600F0E8FC03E03146284600F0E5FC73
:1002B00070BD70B504460D46062C24D2DFE804F06C
:1002C00023030A11171D2A464FF400416448FFF723
:1002D000E1FF19E02A464FF480716248FFF7DAFF28
:1002E00012E02A4620215E48FFF7D4FF0CE02A46A0
:1002F00010215B48FFF7CEFF06E02A460821584848
:10030000FFF7C8FF00E000BF00BF70BD10B5044696
:100310000021204602F05AFF01D2204610BD84F091
:100320000040FBE72DE9F041044604EB44014B4A51
:1003300002EB81018868002102F0E0FD4DD004EB62
:100340004400464A02EB800081684FF0804002F092
:1003500071FE0746FFF7DAFF054604EB44013F4A0A
:1003600032F8210002F01EFE804604EB44003B4AB6
:1003700002EB80004168404602F05AFF0746FFF753
:10038000C5FF0646294602F021FE13D804EB4401BE
:10039000324A32F8210002F005FE04EB44012F4AF4
:1003A00002EB81014860002004EB440102EB810173
:1003B000886012E004EB4402284B03EB8202916850
:1003C00004EB440203EB8202506802F029FD04EBC7
:1003D0004401224A02EB81014860BDE8F08110B57A
:1003E00021480078062802D101201F4908701F48C3
:1003F0000078B0B91C480078FFF794FF1A490978D3
:1004000001EB4101154A02EB8101486802F0AAFDA7
:100410004FF080418885012113480078FFF749FF9C
:1004200018E01149097801EB41010C4A02EB810106
:10043000486802F097FD40F6C411081A090788853C
:10044000002109480078FFF734FF07480078401C76
:100450000549087010BD00000080BB441006002054
:10046000000C0140000801400000002008060020A8
:100470002DE9F04F87B0064600250024D4E0BFE008
:10048000C5EB05103044005D23281ED14FF0000954
:10049000601C84B20CE0C5EB05103044005D09EB34
:1004A000890100EB4100303800F0FF09601C84B284
:1004B000C5EB05103044005D0028E0D0C5EB051009
:1004C0003044005D5028DAD0E5E7C5EB0510304434
:1004D000005D50281ED14FF0000A601C84B20CE071
:1004E000C5EB05103044005D0AEB8A0100EB4100CA
:1004F00030381FFA80FA601C84B2C5EB0510304416
:10050000005D00287CD0C5EB05103044005D542808
:1005100076D0E5E7C5EB05103044005D54286DD179
:100520004FF0000B601C84B20CE0C5EB05103044AA
:10053000005D0BEB8B0100EB410030381FFA80FBB4
:10054000601C84B2C5EB05103044005D28B1C5EBDA
:1005500005103044005D2128E7D1B9F1050F4FDCCB
:1005600040F6C41082454BDCBAF5FA7F48DB8000C8
:10057000834545DCBBF1140F01DA4FF0140B09EB96
:1005800049002E4921F820A009EB490001EB800029
:10059000A0F802B009EB4901284A02EB8101488822
:1005A00002F0AAFB07460022254B02F04DFACDE9E6
:1005B000020109EB4901214A32F8210002F0F2FC64
:1005C000804609EB49001D4A02EB80004168404625
:1005D00002F02EFE074602F0F7FBCDE90001DDE94F
:1005E000022302F031FACDE9040102F0FBF909EB34
:1005F0004901124A02EB8101886001E0601C84B26B
:10060000C5EB05103044005D00287FF439AF681C4D
:1006100085B2052095FBF0F100FB115018B94FF49D
:100620007A7001F0A3FF0024C5EB05103044005D93
:1006300000287FF424AF07B0BDE8F08F100600203B
:100640000000344010B53048FFF712FF10BD10B560
:100650002E48FFF70DFF2E48FFF70AFF2D48FFF742
:1006600007FF10BD10B52C48FFF702FF2B48FFF71E
:10067000FFFE10BD10B52A48FFF7FAFE2948FFF724
:10068000F7FE10BD10B504466078432802D0442818
:1006900036D106E0204602F0BBF8204602F0EAF828
:1006A0002FE0204602F0B4F8E07852280AD1FFF794
:1006B000CEFFFFF7D7FFFFF7C5FF4520607020464C
:1006C00002F0A6F8E07847280AD1FFF7C0FFFFF74D
:1006D000D1FFFFF7B7FF45206070204602F098F881
:1006E000E0784E2808D14FF47A7001F03FFF4520A2
:1006F0006070204602F08CF8204602F0BBF800E063
:1007000000BF00BF10BD0000010000206A000020F3
:10071000F1000020960100204A0200202B03002057
:100720002A040020470500200146002201E0531C56
:100730009AB28B5C002BFAD1002003E000230B540B
:10074000431C98B29042F9DB7047F0B502460B4665
:100750004FF6FF700024002500BF13E01178521CF3
:10076000484000250AE010F0010F04D040104AF282
:100770000106704000E040106E1CF5B2082DF2DB5F
:10078000661CF4B29C42E9DB374F387006127E706B
:10079000F0BD2DE9F04106460F4614469846334811
:1007A000067047701CB94E203049887001E02F4810
:1007B0008470002506E018F805102C4AE81C115436
:1007C000681CC5B2A542F6DBE01CC1B22748FFF7A2
:1007D000BCFF25484178254AE01C11542248017885
:1007E000201D1154104602F013F82048FFF79CFF1B
:1007F0001D48FFF799FFBDE8F08138B50546002098
:100800000090002401E0601C84B2285D0028FAD129
:10081000601E285C8DF80000A01E285C8DF8010089
:100820000021601E2954A01E29540F48FFF77CFFA9
:10083000A01EC1B22846FFF788FF9DF800000A49B4
:10084000097888420AD19DF8010007494978884211
:1008500004D10548FFF768FF012038BD0248FFF7C3
:1008600063FF0020F9E70000DD0500204C060020B2
:1008700010B501F00FFEFFF7F9FC01F0ACFE01F03E
:1008800085FF01F051FF02F04AF84FF4FA6001F0E1
:100890006DFEFFF7D7FE10BD00210020674A1268E9
:1008A00042F48032654B1A6000BF644A126802F459
:1008B0000030491C10B9B1F5A06FF6D15F4A12683B
:1008C00012F4003F01D0012000E00020012842D1B5
:1008D0005B4A126842F01002594B1A601A461268BD
:1008E00022F003021A601A46126842F002021A60ED
:1008F000524A5268514B5A601A4652685A601A4618
:10090000526842F480625A601A46526822F47C129D
:100910005A601A46526842F4E8125A601A4612683F
:1009200042F080721A6000BF444A126812F0007FE1
:10093000FAD0424A526822F00302404B5A601A46EB
:10094000526842F002025A6000BF3C4A526802F00C
:100950000C02082AF9D1704710B5FFF79DFF10BDB2
:1009600010B53648006840F0010034490860084678
:1009700040683449084031494860084600683249B7
:1009800008402E4908600846006820F4802008606E
:100990000846406820F4FE0048604FF41F0088605D
:1009A000FFF7DAFF4FF000602849086010BD10B56E
:1009B000002100200022214B5B6803F00C0121B1D3
:1009C000042906D0082928D107E0214B214C2360B7
:1009D00027E01F4B1F4C236023E0184B5B6803F498
:1009E0007010164B5B6803F48032022303EB9040D7
:1009F00022B9194B4343174C23600DE00F4B5B6842
:100A000013F4003F04D0144B4343124C236003E023
:100A10000F4B43430F4C236003E00D4B0D4C236001
:100A200000BF00BF054B5B68C3F303130B4CE15CD5
:100A3000084B1B68CB40074C236010BD00100240E0
:100A4000002002400000FFF8FFFFF6FE08ED00E086
:100A500000127A00E005002000093D00E4050020B6
:100A600010B50446CA48844208D10121042000F090
:100A700023FB0021042000F01FFB46E0C548844210
:100A800008D10121082000F017FB0021082000F008
:100A900013FB3AE0C048844208D10121102000F045
:100AA0000BFB0021102000F007FB2EE0BB48844226
:100AB00008D10121202000F0FFFA0021202000F0C1
:100AC000FBFA22E0B648844208D10121402000F020
:100AD000F3FA0021402000F0EFFA16E0B14884421A
:100AE00008D10121802000F0E7FA0021802000F0E9
:100AF000E3FA0AE0AC48844207D10121801500F0F6
:100B0000DBFA0021A01500F0D7FA10BD10B50121C5
:100B1000084600F0D1FA0021012000F0CDFA10BD06
:100B20002DE9F04102460025002600200023002484
:100B3000002791F803C00CF00F0591F803C01CF0DA
:100B4000100F03D091F802C04CEA050591F800C0DF
:100B5000BCF1000F31D0146800202BE04FF0010CE5
:100B60000CFA00F3B1F800C00CEA03069E4220D153
:100B700083004FF00F0C0CFA03F7BC4305FA03FC9B
:100B80004CEA040491F803C0BCF1280F06D14FF0E1
:100B9000010C0CFA00FCC2F814C00AE091F803C082
:100BA000BCF1480F05D14FF0010C0CFA00FCC2F863
:100BB00010C0401C0828D1D31460B1F800C0BCF1AB
:100BC000FF0F34DD546800202EE000F1080C4FF0D8
:100BD000010808FA0CF3B1F800C00CEA03069E42C3
:100BE00021D183004FF00F0C0CFA03F7BC4305FA38
:100BF00003FC4CEA040491F803C0BCF1280F05D1B2
:100C000000F1080C08FA0CF8C2F8148091F803C03F
:100C1000BCF1480F07D100F1080C4FF0010808FAA9
:100C20000CF8C2F81080401C0828CED35460BDE8F0
:100C3000F0814FF6FF710180022181700421C170A3
:100C400070470246002093680B4201D0012000E06B
:100C5000002070470146886880B270470246002035
:100C6000D3680B4201D0012000E00020704701460C
:100C7000C86880B2704701617047416170470AB12E
:100C8000016100E041617047C16070474FF48032FC
:100C90000A4382618161826182698269704702468A
:100CA0000020424B18684FF68073184040EA02104B
:100CB00008433E4B186070473D49C8617047F0B526
:100CC0000A46002300240021002500F00046B6F16A
:100CD000004F02D1354EF16901E0344E7168C0F326
:100CE000034583B200F44016B6F5401F08D121F049
:100CF00070612E4E766826F070662C4F7E6012E092
:100D000000F48016B6F5801F06D1032606FA05F416
:100D1000A14341F0706106E0460D360103FA06F684
:100D2000B14341F0706122B1460D360103FA06F677
:100D3000314300F00046B6F1004F02D11B4EF16185
:100D400001E01A4E7160F0BD30B500228B071C0F18
:100D50000F2303FA04F2154B08338C1053F8243098
:100D60009343124C08348D1044F8253023468C10E0
:100D700053F824308C07240F00FA04F423430B4C5F
:100D800008348D1044F8253030BD0A49086070479A
:100D900000080140000C0140001001400014014017
:100DA00000180140001C01400020014000000140EB
:100DB00000002042DC002042DB48006840F00100D7
:100DC000D949086008464068D8490840D649486073
:100DD00008460068D6490840D349086008460068BC
:100DE00020F4802008600846406820F4FE00486037
:100DF0004FF41F0088607047CB49096821F48031A7
:100E0000C94A11601146096821F480211160B0F5CA
:100E1000803F03D0B0F5802F0ED106E0C2490968AB
:100E200041F48031C04A116007E0BF49096841F4CC
:100E3000A021BD4A116000E000BF00BF704710B59F
:100E400001460022002300204A11012A02D1B64C9B
:100E5000236806E0022A02D1B34C236A01E0B24CB7
:100E6000636A01F01F02012494401C4201D001205A
:100E700000E0002010BD70B500240025002600BF52
:100E80003120FFF7DCFF0646641CB4F5A06F01D0EB
:100E9000002EF5D03120FFF7D2FF08B1012500E088
:100EA0000025284670BD014600209F4A106820F0AA
:100EB000F80040EAC100106070479E490860704722
:100EC00002460020984B586820F47C1042EA010347
:100ED0001843954B5860704796490866704701461D
:100EE0000020914A506820F003000843506070478A
:100EF0008D48406800F00C007047014600208A4A87
:100F0000506820F0F0000843506070470146002010
:100F1000854A506820F4E0600843506070470146FD
:100F20000020814A506820F4605040EAC1005060BF
:100F3000704729B17C4A527A02437B4B5A7204E0D3
:100F4000794A527A8243784B5A7270477A490860DC
:100F5000704701460020744A506820F4404008431E
:100F6000506070470021754A11706F4A82F8201056
:100F7000012802D0042808D103E001216F4A117032
:100F800004E005216D4A117000E000BF00BF70470A
:100F90006B49086070476449096A0143624A1162FB
:100FA0007047674944390860704730B50021002216
:100FB000002400235C4D6D6805F00C0121B104296B
:100FC00005D0082923D105E05E4D056022E05D4D86
:100FD00005601FE0544D6D6805F47012524D6D6848
:100FE00005F48034022505EB92421CB9564D554359
:100FF00005600BE04C4D6D6815F4003F03D0524D79
:101000005543056002E04F4D5543056002E04D4DEC
:10101000056000BF00BF444D6D6805F0F00109098F
:101020004A4D6B5C0568DD4045603F4D6D6805F4D9
:10103000E061090A454D6B5C4568DD4085603A4DCD
:101040006D6805F46051C90A404D6B5C4568DD4030
:10105000C560354D6D6805F44041890B3C4D6B5CB6
:10106000C568B5FBF3F5056130BD29B12E4A52695B
:1010700002432D4B5A6104E02B4A526982432A4BAA
:101080005A61704729B1284A92690243264B9A61F6
:1010900004E0254A92698243234B9A61704729B143
:1010A000214AD2690243204BDA6104E01E4AD26928
:1010B00082431D4BDA61704729B11B4AD268024353
:1010C000194BDA6004E0184AD2688243164BDA60A2
:1010D000704729B1144A12690243134B1A6104E0A4
:1010E000114A12698243104B1A6170471449403902
:1010F000086070470F49C86470470B49C871704752
:101100000948406A40F080700749486270470146CC
:101110000020054A92680A4201D0012000E0002028
:101120007047014988727047001002400000FFF8C4
:10113000FFFFF6FE00004242D8004242201002406B
:101140008004424200127A0000093D00F4050020AC
:101150000406002031490143314A1160704770B5DF
:10116000002100230F22C4780CB32D4C246804F412
:10117000E064C4F5E064210AC1F10403CA40447884
:1011800004FA03F18478144021430901254C0678C0
:10119000A155047804F01F050124AC4005786D11B9
:1011A0004FF0E02606EB8505C5F8004109E004781C
:1011B00004F01F050124AC401B4D0678761145F85C
:1011C000264070BD194A0A400243154B1B1F1A6086
:1011D000704739B1124A121D12680243104B1B1D91
:1011E0001A6006E00E4A121D126882430C4B1B1D4A
:1011F0001A607047042808D14FF0E021096941F0D6
:1012000004014FF0E022116107E04FF0E02109698D
:1012100021F004014FF0E022116170470000FA054F
:101220000CED00E000E400E080E100E080FFFF1F43
:1012300010B50446FB48844209D101218803FFF719
:101240003BFF00214FF48040FFF736FF32E0F648C5
:10125000844209D101214804FFF73BFF00214FF4EC
:101260000030FFF736FF25E0F048844209D1012124
:101270008804FFF72EFF00214FF48020FFF729FF9D
:1012800018E0EB48844209D10121C804FFF721FF8F
:1012900000214FF40020FFF71CFF0BE0E5488442DB
:1012A00008D101210805FFF714FF00214FF4801039
:1012B000FFF70FFF10BD2DE9F04786B005460E463B
:1012C0000024A24600BFA1460027B08900B100BF9C
:1012D0002F462C8A4CF6FF700440F08804432C8281
:1012E000AC894EF6F3100440B08831890843718907
:1012F00008430443AC81AC8A4FF6FF400440B089F8
:101300000443AC8201A8FFF750FEC648874202D1D1
:10131000DDF810A001E0DDF80CA0A88910F4004F62
:1013200008D00AEBCA0000EB0A1031684900B0FB94
:10133000F1F807E00AEBCA0000EB0A1031688900F7
:10134000B0FBF1F86420B8FBF0F00401200964213F
:1013500001FB1089A88910F4004F08D0322000EB5F
:10136000C900B0FBF1F000F00700044308E03220B0
:1013700000EB09106421B0FBF1F000F00F00044312
:101380002C8106B0BDE8F0874FF4165101600021B2
:101390008180C18001810C214181002181817047C0
:1013A00010B502460020108A4FF2FF0318400B8848
:1013B0004C8823438C882343CC88234318431082D2
:1013C00010BD0021018041808180C180704721B122
:1013D000828942F40052828104E082894DF6FF73D3
:1013E0001A4082817047F0B503460024002600258C
:1013F0000020A1F510676A3F00D100BF1846C1F375
:10140000421401F01F06012707FA06F5012C01D14D
:101410000C3004E0022C01D1103000E014301AB17D
:1014200007682F43076002E00768AF430760F0BD1D
:101430001AB1838A0B43838202E0838A8B438382BF
:101440007047028A4FF6F0731A400282028A0A43FA
:101450000282704782894FF2FF731A40828182892B
:101460000A438281704721B1828942F0020282815F
:1014700004E082894FF6FD731A4082817047028A28
:101480004FF6DF731A400282028A0A4302827047D3
:1014900021B1028A42F48042028204E0028A4BF6C1
:1014A000FF731A4002827047C1F3080282807047BE
:1014B00001468888C0F308007047818941F0010126
:1014C00081817047028BD2B20283028B42EA0122F1
:1014D00002837047028B02F47F420283028B0A432D
:1014E0000283704721B1828A42F02002828204E0A6
:1014F000828A4FF6DF731A408282704721B1828A56
:1015000042F01002828204E0828A4FF6EF731A40A2
:101510008282704721B1828A42F00802828204E00E
:10152000828A4FF6F7731A408282704721B182890E
:1015300042F40042828103E08289C2F30E0282817A
:10154000704721B1828A42F40062828204E0828A7A
:101550004FF2FF731A4082827047828A4FF6FB7304
:101560001A408282828A0A438282704721B1828A2B
:1015700042F00202828204E0828A4FF6FD731A4032
:101580008282704702460020B1F5007F00D100BF83
:1015900013880B4201D0012000E00020704701F4C5
:1015A0000072B2F5007F00D100BFCA4302807047CD
:1015B00070B502460024002300250020A1F5106626
:1015C0006A3E00D100BFC1F3421501F01F0301269E
:1015D00006FA03F3012D02D19689334006E0022D6D
:1015E00002D1168A334001E0968A33400C1201265C
:1015F00006FA04F41688344013B10CB1012000E05F
:10160000002070BD10B500220023A1F510646A3CD3
:1016100000D100BF0A1201249440A3B2DC4304802D
:1016200010BD000000380140004400400048004068
:10163000004C00400050004010B50446FE48844273
:1016400008D10121C014FFF737FD0021E014FFF796
:1016500033FDC4E0B4F1804F08D101210846FFF703
:1016600038FD00210120FFF734FDB8E0F348844243
:1016700008D101210220FFF72CFD00210220FFF7F5
:1016800028FDACE0EE48844208D101210420FFF798
:1016900020FD00210420FFF71CFDA0E0E948844262
:1016A00008D101210820FFF714FD00210820FFF7D1
:1016B00010FD94E0E448844208D101211020FFF796
:1016C00008FD00211020FFF704FD88E0DF48844278
:1016D00008D101212020FFF7FCFC00212020FFF78A
:1016E000F8FC7CE0DA48844208D101214014FFF77D
:1016F000E3FC00216014FFF7DFFC70E0D548844272
:1017000009D10121C804FFF7D7FC00214FF40020C4
:10171000FFF7D2FC63E0D048844209D101210805DB
:10172000FFF7CAFC00214FF48010FFF7C5FC56E01C
:10173000CA48844209D101214805FFF7BDFC0021B8
:101740004FF40010FFF7B8FC49E0C548844208D1C7
:1017500001214020FFF7BDFC00214020FFF7B9FC2C
:101760003DE0C048844208D101218020FFF7B1FC50
:1017700000218020FFF7ADFC31E0BB48844208D156
:1017800001218015FFF7A5FC0021A015FFF7A1FCA2
:1017900025E0B648844209D101210804FFF78CFCFA
:1017A00000214FF48030FFF787FC18E0B0488442F6
:1017B00009D101214804FFF77FFC00214FF40030DC
:1017C000FFF77AFC0BE0AB48844208D10121880482
:1017D000FFF772FC00214FF48020FFF76DFC10BD75
:1017E00000220288944B98420ED0994B98420BD01D
:1017F000B0F1804F08D0914B984205D0904B984261
:1018000002D0904B984204D14FF68F731A404B8808
:101810001A438D4B984207D08C4B984204D04FF618
:10182000FF431A40CB881A4302808B8883850B883C
:101830000385814B98420BD0854B984208D08B4B47
:10184000984205D08A4B984202D08A4B984201D1E7
:101850000B7A038601238382704770B5002400222F
:101860000023058C4FF6FE7635400584028C838874
:10187000048B4FF68F752C40B51E2C400D882C43E1
:10188000751E2A400D892A434D882A436A4DA84275
:101890000BD06F4DA84208D0744DA84205D0744DAE
:1018A000A84202D0734DA84213D14FF6F7752A40D3
:1018B0004D892A434FF6FB752A408D882A434FF6FF
:1018C000FF652B404FF6FF552B408D892B43CD896B
:1018D0002B4383800483CD888586028470BD70B5D8
:1018E000002400220023058C4FF6EF763540058456
:1018F000028C8388048B48F6FF752C404FF6FF4519
:101900002C400D884FF6FF7606EA05252C434FF64E
:10191000DF752A400D8906EA05152A434D8806EA37
:1019200005152A43444DA84202D0494DA8421DD175
:101930004FF67F752A404D894FF6FF7606EA05156A
:101940002A434FF6BF752A408D8806EA05152A43BB
:101950004FF6FF352B404FF2FF752B408D8906EA7D
:1019600085052B43CD8906EA85052B4383800483B7
:10197000CD880587028470BD70B500240022002345
:10198000058C4FF6FF6635400584028C8388848B76
:101990004FF68F752C404FF6FC752C400D882C436C
:1019A0004FF6FF552A400D894FF6FF7606EA0525CA
:1019B0002A434D8806EA05252A431F4DA84202D036
:1019C000234DA8421DD14FF2FF752A404D894FF695
:1019D000FF7606EA05252A434FF6FF352A408D8813
:1019E00006EA05252A434EF6FF752B404DF6FF7596
:1019F0002B408D8906EA05152B43CD8906EA05158E
:101A00002B4383808483CD888587028470BD70B525
:101A1000002200230024058C4EF6FF763540058415
:101A2000038C8488828B48F6FF752A404FF6FF4569
:101A30002A400D8820E00000002C014000040040F6
:101A400000080040000C004000100040001400405E
:101A500000340140004C014000500140005401405E
:101A600000180040001C00400020004000400140E1
:101A700000440140004801404FF6FF7606EA052584
:101A80002A434DF6FF752B400D8906EA05352B4399
:101A90004D8806EA05352B43FA4DA84202D0FA4D8F
:101AA000A84208D14BF6FF752C408D894FF6FF7682
:101AB00006EA85152C4384808283CD88A0F84050A7
:101AC000038470BD828B4FF2FF331A408283828B76
:101AD0004FF6FF7303EA01231A4382837047F0B580
:101AE0000C461546002200210026078C4EF6FF7C8E
:101AF00007EA0C070784828B018C4FF6FF7707EA11
:101B0000043640F6FF473A404FF6FF7707EA0527CD
:101B10003A434FF6FF7707EA03373A43D94FB842C3
:101B20000ED0D94FB8420BD0B0F1804F08D0D74F6C
:101B3000B84205D0D64FB84202D0D64FB84206D1EF
:101B40004DF6FF77394046F48057394305E047F6B4
:101B5000FF57394044F48057394382830184F0BDF4
:101B6000828B4FF6F3731A408283828B0A438283FF
:101B70007047F0B50C461546002200210026078C60
:101B80004FF6FF6C07EA0C070784828B018C4FF637
:101B9000FF7707EA04264FF60C773A404FF6FF77B7
:101BA00007EA03172F433A43B64FB8420ED0B64F59
:101BB000B8420BD0B0F1804F08D0B44FB84205D036
:101BC000B34FB84202D0B34FB84206D14FF6FF57D9
:101BD000394046F48077394305E04FF2FF573940EA
:101BE00044F48077394382830184F0BD028B4FF245
:101BF000FF331A400283028B4FF6FF7303EA01237F
:101C00001A4302837047F0B50C46154600220021A6
:101C10000026078C4FF6EF7C07EA0C070784028B3F
:101C2000018C4FF6FF7707EA041640F6FF473A406B
:101C30004FF6FF7707EA03373A434FF6FF7707EA95
:101C400005273A438F4FB8420ED08F4FB8420BD082
:101C5000B0F1804F08D08D4FB84205D08C4FB842BC
:101C600002D08C4FB84206D14FF6DF77394046F0AC
:101C70001007394305E04FF65F77394044F010070D
:101C8000394302830184F0BD028B4FF6F3731A408F
:101C90000283028B0A4302837047F0B50C46154657
:101CA00000220021068C4FF6FE773E400684028B10
:101CB000018C4FF60C7632407E1C06EA03162E434A
:101CC0003243704EB0420ED06F4EB0420BD0B0F1E6
:101CD000804F08D06D4EB04205D06D4EB04202D05C
:101CE0006C4EB04206D14FF6FD76314044F001060D
:101CF000314305E04FF6F576314044F001063143BB
:101D000002830184F0BD70B505460C465D488542EE
:101D10000ED05D4885420BD0B5F1804F08D05B48AE
:101D2000854205D05A48854202D05A48854200D1A2
:101D300000E000BF208850B92389A2886188284626
:101D4000FFF7ABFFE1882846FFF79EFF25E02088DC
:101D500004280AD12389A28861882846FFF753FF07
:101D6000E1882846FFF742FF17E0208808280AD1BB
:101D70002389A28861882846FFF7FBFEE188284670
:101D8000FFF7EEFE09E02389A28861882846FFF765
:101D9000A6FEE1882846FFF795FE70BD2DE9F041CB
:101DA00005460C4600260127608808B9022600E097
:101DB0000026A088012801D1022700E00127208801
:101DC000A0B92389A28861882846FFF766FFE188C9
:101DD0002846FFF759FF23893A4631462846FFF740
:101DE00012FFE1882846FFF701FF13E02389A2884C
:101DF00061882846FFF707FFE1882846FFF7F6FECF
:101E000023893A4631462846FFF747FFE1882846AE
:101E1000FFF73AFFBDE8F0810A884B881A438B88A8
:101E20001A43CB881A430B891A434B891A438B896F
:101E30001A43A0F8442070474FF6FF7181800021BB
:101E40000180C18041800172704700210180418082
:101E50008180C180018141818181C18170470021E0
:101E600001804180012181800021C1800181704772
:101E70000021018041808180C18001814181818177
:101E800070470000002C0140003401400004004075
:101E900000080040000C004021B1028842F001021D
:101EA000028004E002884FF6FE731A4002807047F9
:101EB00031B1B0F8442042F40042A0F8442005E0DB
:101EC000B0F84420C2F30E02A0F8442070471AB1C3
:101ED00083890B43838102E083898B43838170472D
:101EE0008182704741EA0203A0F8483070471AB176
:101EF00083890B43838102E083898B43838170470D
:101F000001894FF6F8721140018170470A4600219D
:101F100001894FF68F73194011430181704730B525
:101F200004460D4629462046FFF7F0FF208940F081
:101F30000700208130BD2DE9F04104460D461646CC
:101F40001F46602D06D13B46012231462046FFF751
:101F50005AFE05E03B46012231462046FFF79DFE32
:101F600029462046FFF7D2FF208940F00700208154
:101F7000BDE8F08130B50C4600210189C9B24FF6A9
:101F8000FF7505EA0325154325432943018130BD2B
:101F90002DE9F04105460E46174698460024434673
:101FA0003A4631462846FFF7E5FF2C894FF6F87090
:101FB000044044F007044FF68F70044044F070046E
:101FC0002C81BDE8F081F0B504460D4616461F464B
:101FD0003B46324629462046FFF7CCFF208940F495
:101FE00080402081F0BD0185828270470A46002131
:101FF00001884FF68F731940114301807047F0B587
:102000000C4615461E460021002200230189028B42
:10201000038C4FF6F877394021434FF6FC473A409E
:1020200040F201173A434FF6DD773B404FF6FF771A
:1020300007EA06172F433B43018102830384F0BD67
:102040000A460021018B4FF68F731940114301831B
:1020500070470A460021018B48F6FF7319404FF67E
:10206000FF7303EA02231943018370470A460021E4
:10207000818B4FF68F7319401143818370470A4655
:102080000021818B48F6FF7319404FF6FF7303EA76
:10209000022319438183704721B1028842F08002F4
:1020A000028004E002884FF67F731A400280704776
:1020B00021B1828842F00402828004E082884FF6D7
:1020C000FB731A408280704721B1828842F0080277
:1020D000828004E082884FF6F7731A40828070474E
:1020E00021B1828842F00102828004E082884FF6AA
:1020F000FE731A40828070470A460021018B4FF61A
:10210000F77319401143018370470A460021018B80
:102110004FF2FF7319404FF6FF7303EA022319438E
:10212000018370470A460021818B4FF6F7731940EF
:102130001143818370470A460021818B4FF2FF7360
:1021400019404FF6FF7303EA022319438183704756
:102150000A460021018B4FF6FB731940114301839E
:1021600070470A460021018B4FF6FF3319404FF6A6
:10217000FF7303EA02231943018370470A460021D3
:10218000818B4FF6FB7319401143818370470A46D8
:102190000021818B4FF6FF3319404FF6FF7303EA9E
:1021A00002231943818370470A460021018B4FF6B1
:1021B0007F7319401143018370470A460021018B48
:1021C000C1F30E014FF6FF7303EA022319430183A3
:1021D00070470A460021818B4FF67F7319401143E7
:1021E000818370470A460021818BC1F30E014FF6AF
:1021F000FF7303EA02231943818370470A460021D3
:10220000018C4FF6FD7319401143018470470A4653
:102210000021018C4FF6F773194011430184704778
:102220000A460021018C4FF6DF7319404FF6FF7309
:1022300003EA02131943018470470A460021018C06
:102240004FF67F7319404FF6FF7303EA02131943E9
:10225000018470470A460021018C4FF6FF53194054
:102260004FF6FF7303EA02231943018470470A46BD
:102270000021018C4FF2FF7319404FF6FF7303EA00
:1022800002231943018470470A460021018C4DF650
:10229000FF7319404FF6FF7303EA023319430184B9
:1022A000704730B5002301248C40A3B2048C9C43BA
:1022B0000484048C02FA01F5ADB22C43048430BDD1
:1022C00030B5002304248C40A3B2048C9C430484C6
:1022D000048C02FA01F5ADB22C43048430BD70B514
:1022E0000346002000241846183001258D40ACB26A
:1022F0001D8CA5431D8409B1082909D100EB61009B
:10230000056825F0700505600568154305600EE059
:102310000D1FC5F34E052844056825F4E04505600A
:1023200005684FF6FF7606EA02263543056070BD64
:1023300021B1028842F00202028004E002884FF6D6
:10234000FD731A400280704721B1028842F00402F6
:10235000028004E002884FF6FB731A400280704747
:1023600021B1828842F08002828004E082884FF6A8
:102370007F731A408280704702884FF6F7731A40C5
:10238000028002880A430280704782884FF68F736A
:102390001A40828082880A438280704702894FF601
:1023A000F8731A40028102890A4302817047028948
:1023B0004FF67F731A40028102890A4302817047F7
:1023C0008184704781857047818670470187704797
:1023D00081877047A0F84010704702884FF6FF438E
:1023E0001A40028002880A43028070470146888EA4
:1023F00070470146088F70470146888F7047014635
:10240000B1F8400070470146888C70470146088D3E
:10241000704702460020138A0B4201D0012000E0E1
:1024200000207047CA430282704730B50246002040
:1024300000230024158A05EA0103958905EA0104B1
:1024400013B10CB1012000E0002030BDCA4302826C
:10245000704700000948804709480047FEE7FEE74B
:10246000FEE7FEE7FEE7FEE7FEE7FEE7FEE7FEE744
:1024700004480549054A064B7047000061090008F9
:102480003101000810070020100D00201009002065
:102490001009002008B501210D20FEF7F3FD0121F0
:1024A0000F48FEF70CFC4FF48070ADF800000320DD
:1024B0008DF8020010208DF8030069460948FEF7E8
:1024C0002FFB48F23800ADF8000003208DF8020021
:1024D00010208DF8030069460348FEF721FB08BD74
:1024E0000002300000080140000C014030B50146F8
:1024F000B1F1807F01D3012030BD21F07F40401E2B
:102500004FF0E022506150170F22002807DA13071E
:102510001D0E234B00F00F04241F1D5503E013076D
:102520001C0E204B1C5400BF00204FF0E022906195
:10253000072010610020DFE770B504464820FFF750
:10254000D5FF002507E000BF4FF0E020006910F440
:10255000803FF9D06D1CA542F5D34FF0E020006913
:1025600020F001004FF0E021086170BD70B5044615
:102570000D48FFF7BBFF002507E000BF4FF0E0204C
:10258000006910F4803FF9D06D1CA542F5D34FF0DF
:10259000E020006920F001004FF0E021086170BDEB
:1025A00018ED00E000E400E04019010008B54FF428
:1025B000E060FEF7CFFD25208DF8000000208DF8AB
:1025C000010003208DF8020001208DF80300684609
:1025D000FEF7C5FD08BD00B585B001210420FEF75A
:1025E00051FD01218803FEF74DFD4FF40070ADF859
:1025F000100018208DF8130003208DF8120004A994
:102600002A48FEF78DFA4FF48060ADF810000420E0
:102610008DF8130004A92548FEF782FA4FF4E13043
:1026200000900020ADF80400ADF80600ADF80800F9
:10263000ADF80C000C20ADF80A0069461C48FEF706
:102640003AFEFFF7B3FF012240F225511848FEF78A
:10265000CAFE01211648FEF7BAFE05B000BD10B54E
:1026600040F225511248FEF7A3FF38B11048FEF79B
:102670001FFFC4B221460E48FEF716FF10BD70B50D
:102680000546002601E0701C86B2A85D0028FAD13C
:10269000002408E0295D0648FEF706FF6420FFF7E6
:1026A0004BFF601C84B2B442F4DB70BD00080140F3
:1026B0000038014008B54FF4E060FEF74BFD1C20E8
:1026C0008DF8000000208DF8010004208DF8020034
:1026D00001208DF803006846FEF741FD08BD0EB5E8
:1026E00001210846FEF7DBFC44F62060ADF804004B
:1026F0004720ADF800000020ADF80600ADF802005C
:1027000069464FF08040FFF76BF800214FF08040A2
:10271000FFF7C2FC012211469007FFF7D8FB012109
:102720008807FFF7B9FB0EBD10B5FFF7C3FFFFF732
:10273000D6FF10BD10B501218807FFF776FE68B1FE
:1027400001218807FFF782FEFDF749FE0448007863
:1027500008B9012000E000200149087010BD000008
:102760000806002008B54FF4E060FEF7F3FC2620D1
:102770008DF8000000208DF8010001208DF8020086
:102780008DF803006846FEF7EAFC08BD00B585B089
:1027900001210420FEF776FC01214804FEF77FFCAE
:1027A0000420ADF8100018208DF8130003208DF8D8
:1027B000120004A93A48FEF7B3F90820ADF810005A
:1027C00004208DF8130004A93548FEF7A9F94FF449
:1027D000E13000900020ADF80400ADF80600ADF83F
:1027E0000800ADF80C000C20ADF80A0069462D4831
:1027F000FEF761FDFFF7B6FF012240F2255129489F
:10280000FEF7F1FD01212748FEF7E1FD05B000BD0F
:1028100070B50546002601E0701C86B2A85D002850
:10282000FAD1002408E0295D1E48FEF73DFE642031
:10283000FFF782FE601C84B2B442F4DB70BD10B5B9
:1028400040F225511748FEF7B3FE90B1012116481A
:10285000FFF722FB0A20154908701248FEF728FEF0
:102860001349144A1288885412480088401C1149A0
:10287000088010BD10B50146002201E0531C9AB239
:102880008B5C002BFAD1002003E000230B54431C87
:1028900098B29042F9DB0023064C238010BD000063
:1028A0000008014000440040000400400C060020E5
:1028B0007E0600200A06002008B54FF4E060FEF70F
:1028C00049FC1D208DF8000000208DF80100032038
:1028D0008DF8020001208DF803006846FEF73FFCEA
:1028E00008BD0EB501210220FEF7D9FB40F2E7300A
:1028F000ADF804004720ADF8000069461948FEF71E
:102900006FFF01211748FFF78DFD01221146154881
:10291000FFF7DDFA00211348FFF7BEFA0EBD10B530
:10292000FFF7CAFFFFF7DDFF10BD10B501210D480D
:10293000FFF77BFDA8B10C480078401E0A490870DB
:1029400001210848FFF782FD0748007848B90120B7
:10295000064908700A200449087000210148FFF761
:102960009BFA10BD000400400C0600200D0600205C
:10297000704770477047754600F028F8AE4605006E
:102980006946534620F00700854618B020B5FFF78A
:102990006FFDBDE820404FF000064FF000074FF0FC
:1029A00000084FF0000B21F00701AC46ACE8C0096D
:1029B000ACE8C009ACE8C009ACE8C0098D46704776
:1029C0000446AFF300802046FDF71DFC0048704729
:1029D000B006002001491820ABBEFEE72600020029
:1029E0007047000021F00042A2F16052B2F5801F52
:1029F00001F0004328BFD2F17F6C0BD95FEA001CC5
:102A000043EAC20242EB507018BF704728BF20F063
:102A100001007047B2F5801FBCBF184670474FEAEF
:102A2000410C1CF5001F02D2084600F0CABB70B56D
:102A300000F075F900000089FFF7F6BF4FF0004085
:102A4000A0F58000704700002DE9C04130B4DFF8E8
:102A5000A0C23CEA111418BF3CEA131400F0EC8049
:102A600081EA03051CEA111444EAD57418BF1CEA74
:102A7000131500F0C780A4EB05044FF0004545EAAC
:102A8000C12145EAC32341EA505143EA525304F1BC
:102A90007F74994204F500344FEAC0204FEAC22205
:102AA00008BF904200F09C804FEA13650FF2401679
:102AB000765D4FEA134506FB05F7C7F1807706FB05
:102AC00007F74FEAD737A7FB03687642C8F5803887
:102AD000A7FB06CE38BFA8F1010807FB08E64FF0B8
:102AE000000EA6FB028CE6FB03CEDCF1000CCEF15F
:102AF000004E38BFAEF1010EA6FB0C584FF0000798
:102B00004FF00005E6FB0E87A1FB08C6A0FB07CE31
:102B100016EB0E0645F10005E1FB076515F1E04EE9
:102B20007EBFA4F580345FEA46066D4116F180074A
:102B300045F100054FEA17274FEA066647EA0567A1
:102B4000A6F1DE46B6F1805F4FEA15251FD938465B
:102B500024F0010C05EBC471BCF1FE6F01EB0C110C
:102B600002D8F0BCBDE8008124425CBF01F5801EA4
:102B70009EEAC47F02D4F0BCBDE80081244238D470
:102B8000F0BCA1F1C041BDE8004100F016B94FEA28
:102B9000D22242EA43524FEAD323A7FB02864FEAEE
:102BA000D02040EA415007FB03661EEA0E0F4FEAB1
:102BB000D12105FB026658BFA6EB0056B6EB0056C6
:102BC0004FEA520E4EEAC37E18EB0E0E56EB530E32
:102BD000BDD518EB02085E417F1C55F10005B6E734
:102BE0004FF480154FF000074FF000064FF000083B
:102BF000ADE7F0BC4FF0000001F1C04101F0004131
:102C0000BDE8008111EA0C1F0CEA131500D00CE09E
:102C100013EA0C1F00F025804FF00000F0BC81EAA1
:102C2000030101F00041BDE80081F0BCBDE80041B6
:102C300081EA030100F0C1B8F0BCBDE8004170B505
:102C400000F06DF8097EFC3E00F007B881EA030150
:102C50004FF0000001F00041704781EA030100F0ED
:102C6000ACB8F0BCBDE800414FF00000214970470E
:102C7000FFFDFBF9F7F5F4F2F0EEEDEBE9E8E6E441
:102C8000E3E1E0DEDDDBDAD8D7D5D4D3D1D0CFCDC8
:102C9000CCCBCAC8C7C6C5C4C2C1C0BFBEBDBCBB01
:102CA000BAB9B8B7B6B5B4B3B2B1B0AFAEADACABFC
:102CB000AAA9A8A8A7A6A5A4A3A3A2A1A09F9F9ED6
:102CC0009D9C9C9B9A999998979796959594939388
:102CD000929191908F8F8E8E8D8C8C8B8B8A89891F
:102CE00088888787868585848483838282818180A2
:102CF0000000FF070000F87FB0FA80F310FA03F13C
:102D00000AD0C3F11D0303F580634FEA41504FEA37
:102D1000035202EBD12170474FF0000070470EF1D3
:102D2000020E2EF0030E5EF8046B364205D4012A23
:102D300043EB030515F5001F12D8012841EB010CE8
:102D40001CF5001F0CD80ED14FEAD17C15F5001FE1
:102D50000CEB4C0C0CF1020C08BF4CEBD37C04E0E8
:102D60004FF0080C01E04FEAD37C0CEB4C0526FA3F
:102D700005F606F00706B6F1040C06D20EEB860C3B
:102D8000BDE870404CF0010C6047DFE80CF0090B27
:102D900002024FF000414FF00000A1F5002170BD8C
:102DA00019461046012851EB010418BFD4F5001450
:102DB00084BF002001F0004170BD0808A0F500119B
:102DC0004FEA31017047000043004FEAD30C4FEA4D
:102DD0003C0C43401FBF40070CF1605113F0FE4F05
:102DE00070471CF0006F03D100200CF000417047C9
:102DF0000CF0004343EA507010B540EACC0000F0FC
:102E00009AF900BF000000924FEA0001FFF7D5BF1A
:102E10004FF000414FF00000A1F500217047000085
:102E200090EA010F48BF81F0004100F10882421A88
:102E30003CBF801A89184FEAD0524FF07F4C1CEAF1
:102E4000410FA2EBD15318BF9CEA026F00F03B8008
:102E50004FF0004C4CEA00204CEA012121FA03FC1F
:102E600010EB0C0C1ED202F1FF325FEA1C2040EB8B
:102E7000C25038BF70471CF07F0F4FEA400C18BF9C
:102E8000BCF17F4F38BF7047C3F12003994008BFA2
:102E900020F00100BCF17F4F38BF7047A0F1C04067
:102EA00000F08FB94FEA3C00000A40EBC25028BF47
:102EB0001CF0FF0F4FEA400CE6D018BFBCF17F4F6B
:102EC00038BF7047EAE79CEA026F05D010EA5C0F52
:102ED00008BF00F00040704710B500F02CF900BFAB
:102EE00064FBBE3E401058BFC0F14040491058BF7F
:102EF000C1F140418142EFF30080704750EA010C7C
:102F000000F113801CF5000F58BFBCF5000F01D471
:102F10008842704707D710F5000F58BF11F5000F12
:102F200015D488427047894270471CF5000F04D5BC
:102F3000BCF5000FF7D5814270474FF0807C1CEB49
:102F4000400F38BF1CEB410F01D28142704710B5D2
:102F500000F0F1F8922449004FF000504FF08051FA
:102F6000FFF7C0BFC10DD1F19E0206DB4FEA00237F
:102F700043F0004323FA02F07047004207D54FEABE
:102F80004001B1F1FE4F02D24FF00000704710B582
:102F900000F0D1F849922480002070476FEA2000A9
:102FA00070470000B0FA80F310FA03F2C3F19D03FA
:102FB0000AD0D90501EB1220530638BF704700F143
:102FC000010008BF20F001007047000050EA010C2A
:102FD00000F113801CF5000F58BFBCF5000F01D4A1
:102FE0008842704707D710F5000F58BF11F5000F42
:102FF00015D488427047894270471CF5000F04D5EC
:10300000BCF5000FF7D5814270474FF0807C1CEB78
:10301000400F38BF1CEB410F01D28142704710B501
:1030200000F089F8922449004FF000504FF0805191
:10303000FFF758BF4FF47F0C1CEAD0121EBF1CEAEA
:10304000D11392EA0C0F93EA0C0F00F0478090EA3C
:10305000010F48BF42F480724FF0004C4CEA002050
:103060004CEA012102EB0302A0FB0113A2F50002CE
:10307000002918BF43F001035B0028BF4FEA330368
:1030800042EB22425FEA132C4CEBC2502EBFBCEB4A
:10309000436FB2F57C0F70474FEA036CBCF1004FF1
:1030A00008BF20F00100B2F57C0F38BF70470BD588
:1030B00082F0FF0212F5803FC8BF704700F1C040A8
:1030C000D8BF00F00040704700F5000C5FEA4C0CE0
:1030D00048BF7047B0F1C04000F073B890EA010FEC
:1030E0000CEAD11348BF42F48072624538BF634591
:1030F00004D280EA010000F00040704710B500F0F3
:103100001AF800BF8900013E00F007B800F009B8C6
:103110005FEA410C5FEA1C6C08D080EA010000F015
:1031200050B85FEA400C5FEA1C6CF6D14FF00040EB
:10313000A0F5800070470EF1020E2EF0030E5EF82F
:10314000044B244204D44FEA4102B2F17F4F11D81C
:103150004FEA4003B3F17F4F0CD80ED14FEAD07C39
:10316000B2F17F4F0CEB4C0C0CF1020C08BF4CEB96
:10317000D17C04E04FF0080C01E04FEAD17C0CEB6D
:103180004C0324FA03F404F00704B4F1040C06D24F
:103190000EEB840CBDE810404CF0010C6047DFE8FA
:1031A0000CF0070802024FF00040A0F5800010BDAF
:1031B0000846420018BFD2F1807288BF00F000407C
:1031C00010BDFF2141EAD050C005704751EA000C04
:1031D00000F113801CF5000F58BFBCF5000F01D49F
:1031E0008142704707D711F5000F58BF10F5000F47
:1031F00015D481427047894270471CF5000F04D5F1
:10320000BCF5000FF7D5884270474FF0807C1CEB6F
:10321000410F38BF1CEB400F01D28842704780EA53
:10322000010081EA000180EA0100FFF7F8BE00001A
:1032300090EA010F48BF81F000413FF5F8AD421A16
:1032400004D882F00042A0EB020011444FEAD052B1
:103250004FF07F4C1CEA410FA2EBD15318BF9CEA00
:10326000026F4AD04FF0004C4CEA00204CEA01219A
:1032700021FA03FCB0EB0C0C0FD412F0FE0F36D089
:103280005FEA4C001DD5001240EBC25038BF7047BA
:103290001CF03F0F18BF70470BE0A2F101025FEA7C
:1032A0001C2040EBC25038BF70471CF07F0F18BF86
:1032B0007047C3F12003994014BF401E20F0010065
:1032C000704780084FEA122308BF7047B0FA80FCAD
:1032D000A2EB0C02CCF1280C60FA0CF093EA122F4E
:1032E00004BF00EBC25070474FEAC3707047130A27
:1032F0005FEADC1008BF7047F6E79CEA026F04D073
:1033000010EA5C0F08BF0020704710B5FFF713FFED
:1033100040DFF63E81F00040704700003C3300087B
:1033200000000020100600006C0100080C340008AA
:103330001006002000070000D0010008200C012327
:103340003030315031353030540512210F90053274
:103350005031300F9005335030370F8006345030E5
:1033600039350F6005355031313C021B0001011326
:1033700069313C7231698335350FB00A34503132CE
:1033800033305430386902203069015087B23187B8
:10339000223987023D34870127A586329582350F71
:1033A000659586322C82320F51A5313C02660001B0
:1033B00035E01632E12A543F55E0BB343649DA395C
:1033C00049BA30490A24394901760191E10234357C
:1033D000E125C203973031E10921942D070305D679
:1033E000E0057C1D09561C6004A24A04A560090181
:1033F000020304060708090C6110200502040608F0
:0C340000C50005000A00000000000000EC
:0400000508000131BD
:00000001FF
